{
  "address": "0x45284835Fe6eC9937Ce8db8AEE32F3E684f900F3",
  "abi": [
    {
      "inputs": [
        {
          "internalType": "address",
          "name": "_clawdToken",
          "type": "address"
        },
        {
          "internalType": "address",
          "name": "_owner",
          "type": "address"
        }
      ],
      "stateMutability": "nonpayable",
      "type": "constructor"
    },
    {
      "inputs": [
        {
          "internalType": "uint256",
          "name": "commitment",
          "type": "uint256"
        }
      ],
      "name": "APICredits__CommitmentAlreadyUsed",
      "type": "error"
    },
    {
      "inputs": [],
      "name": "APICredits__EmptyTree",
      "type": "error"
    },
    {
      "inputs": [],
      "name": "APICredits__InsufficientStake",
      "type": "error"
    },
    {
      "inputs": [],
      "name": "APICredits__TreeFull",
      "type": "error"
    },
    {
      "inputs": [],
      "name": "APICredits__ZeroAmount",
      "type": "error"
    },
    {
      "inputs": [
        {
          "internalType": "address",
          "name": "target",
          "type": "address"
        }
      ],
      "name": "AddressEmptyCode",
      "type": "error"
    },
    {
      "inputs": [
        {
          "internalType": "address",
          "name": "account",
          "type": "address"
        }
      ],
      "name": "AddressInsufficientBalance",
      "type": "error"
    },
    {
      "inputs": [],
      "name": "FailedInnerCall",
      "type": "error"
    },
    {
      "inputs": [
        {
          "internalType": "address",
          "name": "owner",
          "type": "address"
        }
      ],
      "name": "OwnableInvalidOwner",
      "type": "error"
    },
    {
      "inputs": [
        {
          "internalType": "address",
          "name": "account",
          "type": "address"
        }
      ],
      "name": "OwnableUnauthorizedAccount",
      "type": "error"
    },
    {
      "inputs": [
        {
          "internalType": "address",
          "name": "token",
          "type": "address"
        }
      ],
      "name": "SafeERC20FailedOperation",
      "type": "error"
    },
    {
      "anonymous": false,
      "inputs": [
        {
          "indexed": true,
          "internalType": "address",
          "name": "user",
          "type": "address"
        },
        {
          "indexed": true,
          "internalType": "uint256",
          "name": "index",
          "type": "uint256"
        },
        {
          "indexed": false,
          "internalType": "uint256",
          "name": "commitment",
          "type": "uint256"
        },
        {
          "indexed": false,
          "internalType": "uint256",
          "name": "newStakedBalance",
          "type": "uint256"
        }
      ],
      "name": "CreditRegistered",
      "type": "event"
    },
    {
      "anonymous": false,
      "inputs": [
        {
          "indexed": false,
          "internalType": "uint256",
          "name": "index",
          "type": "uint256"
        },
        {
          "indexed": false,
          "internalType": "uint256",
          "name": "value",
          "type": "uint256"
        }
      ],
      "name": "NewLeaf",
      "type": "event"
    },
    {
      "anonymous": false,
      "inputs": [
        {
          "indexed": true,
          "internalType": "address",
          "name": "previousOwner",
          "type": "address"
        },
        {
          "indexed": true,
          "internalType": "address",
          "name": "newOwner",
          "type": "address"
        }
      ],
      "name": "OwnershipTransferred",
      "type": "event"
    },
    {
      "anonymous": false,
      "inputs": [
        {
          "indexed": true,
          "internalType": "address",
          "name": "to",
          "type": "address"
        },
        {
          "indexed": false,
          "internalType": "uint256",
          "name": "amount",
          "type": "uint256"
        }
      ],
      "name": "ServerClaimed",
      "type": "event"
    },
    {
      "anonymous": false,
      "inputs": [
        {
          "indexed": true,
          "internalType": "address",
          "name": "user",
          "type": "address"
        },
        {
          "indexed": false,
          "internalType": "uint256",
          "name": "amount",
          "type": "uint256"
        },
        {
          "indexed": false,
          "internalType": "uint256",
          "name": "newBalance",
          "type": "uint256"
        }
      ],
      "name": "Staked",
      "type": "event"
    },
    {
      "anonymous": false,
      "inputs": [
        {
          "indexed": true,
          "internalType": "address",
          "name": "user",
          "type": "address"
        },
        {
          "indexed": false,
          "internalType": "uint256",
          "name": "amount",
          "type": "uint256"
        },
        {
          "indexed": false,
          "internalType": "uint256",
          "name": "newBalance",
          "type": "uint256"
        }
      ],
      "name": "Unstaked",
      "type": "event"
    },
    {
      "inputs": [],
      "name": "MAX_DEPTH",
      "outputs": [
        {
          "internalType": "uint256",
          "name": "",
          "type": "uint256"
        }
      ],
      "stateMutability": "view",
      "type": "function"
    },
    {
      "inputs": [],
      "name": "PRICE_PER_CREDIT",
      "outputs": [
        {
          "internalType": "uint256",
          "name": "",
          "type": "uint256"
        }
      ],
      "stateMutability": "view",
      "type": "function"
    },
    {
      "inputs": [
        {
          "internalType": "address",
          "name": "to",
          "type": "address"
        },
        {
          "internalType": "uint256",
          "name": "amount",
          "type": "uint256"
        }
      ],
      "name": "claimServer",
      "outputs": [],
      "stateMutability": "nonpayable",
      "type": "function"
    },
    {
      "inputs": [],
      "name": "clawdToken",
      "outputs": [
        {
          "internalType": "contract IERC20",
          "name": "",
          "type": "address"
        }
      ],
      "stateMutability": "view",
      "type": "function"
    },
    {
      "inputs": [
        {
          "internalType": "uint256",
          "name": "",
          "type": "uint256"
        }
      ],
      "name": "commitmentUsed",
      "outputs": [
        {
          "internalType": "bool",
          "name": "",
          "type": "bool"
        }
      ],
      "stateMutability": "view",
      "type": "function"
    },
    {
      "inputs": [],
      "name": "depth",
      "outputs": [
        {
          "internalType": "uint256",
          "name": "",
          "type": "uint256"
        }
      ],
      "stateMutability": "view",
      "type": "function"
    },
    {
      "inputs": [
        {
          "internalType": "uint256",
          "name": "",
          "type": "uint256"
        }
      ],
      "name": "filledNodes",
      "outputs": [
        {
          "internalType": "uint256",
          "name": "",
          "type": "uint256"
        }
      ],
      "stateMutability": "view",
      "type": "function"
    },
    {
      "inputs": [],
      "name": "getTreeData",
      "outputs": [
        {
          "internalType": "uint256",
          "name": "size",
          "type": "uint256"
        },
        {
          "internalType": "uint256",
          "name": "treeDepth",
          "type": "uint256"
        },
        {
          "internalType": "uint256",
          "name": "treeRoot",
          "type": "uint256"
        }
      ],
      "stateMutability": "view",
      "type": "function"
    },
    {
      "inputs": [
        {
          "internalType": "uint256",
          "name": "level",
          "type": "uint256"
        }
      ],
      "name": "getZeroHash",
      "outputs": [
        {
          "internalType": "uint256",
          "name": "",
          "type": "uint256"
        }
      ],
      "stateMutability": "view",
      "type": "function"
    },
    {
      "inputs": [
        {
          "internalType": "uint256",
          "name": "_commitment",
          "type": "uint256"
        }
      ],
      "name": "isCommitmentUsed",
      "outputs": [
        {
          "internalType": "bool",
          "name": "",
          "type": "bool"
        }
      ],
      "stateMutability": "view",
      "type": "function"
    },
    {
      "inputs": [],
      "name": "owner",
      "outputs": [
        {
          "internalType": "address",
          "name": "",
          "type": "address"
        }
      ],
      "stateMutability": "view",
      "type": "function"
    },
    {
      "inputs": [
        {
          "internalType": "uint256",
          "name": "_commitment",
          "type": "uint256"
        }
      ],
      "name": "register",
      "outputs": [],
      "stateMutability": "nonpayable",
      "type": "function"
    },
    {
      "inputs": [],
      "name": "renounceOwnership",
      "outputs": [],
      "stateMutability": "nonpayable",
      "type": "function"
    },
    {
      "inputs": [],
      "name": "root",
      "outputs": [
        {
          "internalType": "uint256",
          "name": "",
          "type": "uint256"
        }
      ],
      "stateMutability": "view",
      "type": "function"
    },
    {
      "inputs": [],
      "name": "serverClaimable",
      "outputs": [
        {
          "internalType": "uint256",
          "name": "",
          "type": "uint256"
        }
      ],
      "stateMutability": "view",
      "type": "function"
    },
    {
      "inputs": [
        {
          "internalType": "uint256",
          "name": "amount",
          "type": "uint256"
        }
      ],
      "name": "stake",
      "outputs": [],
      "stateMutability": "nonpayable",
      "type": "function"
    },
    {
      "inputs": [
        {
          "internalType": "address",
          "name": "",
          "type": "address"
        }
      ],
      "name": "stakedBalance",
      "outputs": [
        {
          "internalType": "uint256",
          "name": "",
          "type": "uint256"
        }
      ],
      "stateMutability": "view",
      "type": "function"
    },
    {
      "inputs": [
        {
          "internalType": "address",
          "name": "newOwner",
          "type": "address"
        }
      ],
      "name": "transferOwnership",
      "outputs": [],
      "stateMutability": "nonpayable",
      "type": "function"
    },
    {
      "inputs": [],
      "name": "treeSize",
      "outputs": [
        {
          "internalType": "uint256",
          "name": "",
          "type": "uint256"
        }
      ],
      "stateMutability": "view",
      "type": "function"
    },
    {
      "inputs": [
        {
          "internalType": "uint256",
          "name": "amount",
          "type": "uint256"
        }
      ],
      "name": "unstake",
      "outputs": [],
      "stateMutability": "nonpayable",
      "type": "function"
    },
    {
      "inputs": [
        {
          "internalType": "uint256",
          "name": "",
          "type": "uint256"
        }
      ],
      "name": "zeros",
      "outputs": [
        {
          "internalType": "uint256",
          "name": "",
          "type": "uint256"
        }
      ],
      "stateMutability": "view",
      "type": "function"
    }
  ],
  "transactionHash": "0x75e82d385b550c58875a5bb70aadacdcd734e9ee2e9058f4f2b57fce2d17bcb6",
  "args": [
    "0x9f86dB9fc6f7c9408e8Fda3Ff8ce4e78ac7a6b07",
    "0x4f8AC2fAa3cAcACAcB7b4997A48F377fe88dFd46"
  ],
  "numDeployments": 1,
  "solcInputHash": "61586ba4cf47cd6d11c342fb350dccfb",
  "bytecode": "0x60a060405234801561001057600080fd5b50604051614fdb380380614fdb83398101604081905261002f9161213f565b806001600160a01b03811661005e57604051631e4fbdf760e01b81526000600482015260240160405180910390fd5b610067816100f1565b506001600160a01b038216608052600060068190555b6100896001601061219e565b8110156100e9576100c2600682601081106100a6576100a6612172565b0154600683601081106100bb576100bb612172565b0154610141565b60066100cf8360016121b1565b601081106100df576100df612172565b015560010161007d565b5050506121e6565b600080546001600160a01b038381166001600160a01b0319831681178455604051919092169283917f8be0079c531659141344cd1fd0a4f28419497f9722a3daafe3b4186f6b6457e09190a35050565b60008061014c610166565b9050600061015b828686611756565b925050505b92915050565b61016e612052565b604051806040016040528060405180608001604052807f10dc6e9c006ea38b04b1e03b4bd9490c0d03f98929ca1d7fb56821fd19d3b6e781526020017f0c28145b6a44df3e0149b3d0a30b3bb599df9756d4dd9b84a86b38cfb45a740b81526020017e544b8338791518b2c7645a50392798b21f75bb60e3596170067d00141cac1581526020017f222c01175718386f2e2e82eb122789e352e105a3b8fa852613bc534433ee428b815250815260200160405180610800016040528060405180608001604052807f19b849f69450b06848da1d39bd5e4a4302bb86744edc26238b0878e269ed23e581526020017f265ddfe127dd51bd7239347b758f0a1320eb2cc7450acc1dad47f80c8dcf34d681526020017f199750ec472f1809e0f66a545e1e51624108ac845015c2aa3dfc36bab497d8aa81526020017f157ff3fe65ac7208110f06a5f74302b14d743ea25067f0ffd032f787c7f1cdf8815250815260200160405180608001604052807f2e49c43c4569dd9c5fd35ac45fca33f10b15c590692f8beefe18f4896ac9490281526020017f0e35fb89981890520d4aef2b6d6506c3cb2f0b6973c24fa82731345ffa2d1f1e81526020017f251ad47cb15c4f1105f109ae5e944f1ba9d9e7806d667ffec6fe723002e0b99681526020017f13da07dc64d428369873e97160234641f8beb56fdd05e5f3563fa39d9c22df4e815250815260200160405180608001604052807f0c009b84e650e6d23dc00c7dccef7483a553939689d350cd46e7b89055fd473881526020017f011f16b1c63a854f01992e3956f42d8b04eb650c6d535eb0203dec74befdca0681526020017f0ed69e5e383a688f209d9a561daa79612f3f78d0467ad45485df07093f36754981526020017f04dba94a7b0ce9e221acad41472b6bbe3aec507f5eb3d33f463672264c9f789b815250815260200160405180608001604052807f0a3f2637d840f3a16eb094271c9d237b6036757d4bb50bf7ce732ff1d4fa28e881526020017f259a666f129eea198f8a1c502fdb38fa39b1f075569564b6e54a485d1182323f81526020017f28bf7459c9b2f4c6d8e7d06a4ee3a47f7745d4271038e5157a32fdf7ede0d6a181526020017f0a1ca941f057037526ea200f489be8d4c37c85bbcce6a2aeec91bd6941432447815250815260200160405180608001604052807f0c6f8f958be0e93053d7fd4fc54512855535ed1539f051dcb43a26fd926361cf815260200160008152602001600081526020016000815250815260200160405180608001604052807f123106a93cd17578d426e8128ac9d90aa9e8a00708e296e084dd57e69caaf811815260200160008152602001600081526020016000815250815260200160405180608001604052807f26e1ba52ad9285d97dd3ab52f8e840085e8fa83ff1e8f1877b074867cd2dee75815260200160008152602001600081526020016000815250815260200160405180608001604052807f1cb55cad7bd133de18a64c5c47b9c97cbe4d8b7bf9e095864471537e6a4ae2c5815260200160008152602001600081526020016000815250815260200160405180608001604052807f1dcd73e46acd8f8e0e2c7ce04bde7f6d2a53043d5060a41c7143f08e6e9055d0815260200160008152602001600081526020016000815250815260200160405180608001604052807f011003e32f6d9c66f5852f05474a4def0cda294a0eb4e9b9b12b9bb4512e5574815260200160008152602001600081526020016000815250815260200160405180608001604052807f2b1e809ac1d10ab29ad5f20d03a57dfebadfe5903f58bafed7c508dd2287ae8c815260200160008152602001600081526020016000815250815260200160405180608001604052807f2539de1785b735999fb4dac35ee17ed0ef995d05ab2fc5faeaa69ae87bcec0a5815260200160008152602001600081526020016000815250815260200160405180608001604052807f0c246c5a2ef8ee0126497f222b3e0a0ef4e1c3d41c86d46e43982cb11d77951d815260200160008152602001600081526020016000815250815260200160405180608001604052807f192089c4974f68e95408148f7c0632edbb09e6a6ad1a1c2f3f0305f5d03b527b815260200160008152602001600081526020016000815250815260200160405180608001604052807f1eae0ad8ab68b2f06a0ee36eeb0d0c058529097d91096b756d8fdc2fb5a60d85815260200160008152602001600081526020016000815250815260200160405180608001604052807f179190e5d0e22179e46f8282872abc88db6e2fdc0dee99e69768bd98c5d06bfb815260200160008152602001600081526020016000815250815260200160405180608001604052807f29bb9e2c9076732576e9a81c7ac4b83214528f7db00f31bf6cafe794a9b3cd1c815260200160008152602001600081526020016000815250815260200160405180608001604052807f225d394e42207599403efd0c2464a90d52652645882aac35b10e590e6e691e08815260200160008152602001600081526020016000815250815260200160405180608001604052807f064760623c25c8cf753d238055b444532be13557451c087de09efd454b23fd59815260200160008152602001600081526020016000815250815260200160405180608001604052807f10ba3a0e01df92e87f301c4b716d8a394d67f4bf42a75c10922910a78f6b5b87815260200160008152602001600081526020016000815250815260200160405180608001604052807f0e070bf53f8451b24f9c6e96b0c2a801cb511bc0c242eb9d361b77693f21471c815260200160008152602001600081526020016000815250815260200160405180608001604052807f1b94cd61b051b04dd39755ff93821a73ccd6cb11d2491d8aa7f921014de252fb815260200160008152602001600081526020016000815250815260200160405180608001604052807f1d7cb39bafb8c744e148787a2e70230f9d4e917d5713bb050487b5aa7d74070b815260200160008152602001600081526020016000815250815260200160405180608001604052807f2ec93189bd1ab4f69117d0fe980c80ff8785c2961829f701bb74ac1f303b17db815260200160008152602001600081526020016000815250815260200160405180608001604052807f2db366bfdd36d277a692bb825b86275beac404a19ae07a9082ea46bd83517926815260200160008152602001600081526020016000815250815260200160405180608001604052807f062100eb485db06269655cf186a68532985275428450359adc99cec6960711b8815260200160008152602001600081526020016000815250815260200160405180608001604052807f0761d33c66614aaa570e7f1e8244ca1120243f92fa59e4f900c567bf41f5a59b815260200160008152602001600081526020016000815250815260200160405180608001604052807f20fc411a114d13992c2705aa034e3f315d78608a0f7de4ccf7a72e494855ad0d815260200160008152602001600081526020016000815250815260200160405180608001604052807f25b5c004a4bdfcb5add9ec4e9ab219ba102c67e8b3effb5fc3a30f317250bc5a815260200160008152602001600081526020016000815250815260200160405180608001604052807f23b1822d278ed632a494e58f6df6f5ed038b186d8474155ad87e7dff62b37f4b815260200160008152602001600081526020016000815250815260200160405180608001604052807f22734b4c5c3f9493606c4ba9012499bf0f14d13bfcfcccaa16102a29cc2f69e0815260200160008152602001600081526020016000815250815260200160405180608001604052807f26c0c8fe09eb30b7e27a74dc33492347e5bdff409aa3610254413d3fad795ce5815260200160008152602001600081526020016000815250815260200160405180608001604052807f070dd0ccb6bd7bbae88eac03fa1fbb26196be3083a809829bbd626df348ccad9815260200160008152602001600081526020016000815250815260200160405180608001604052807f12b6595bdb329b6fb043ba78bb28c3bec2c0a6de46d8c5ad6067c4ebfd4250da815260200160008152602001600081526020016000815250815260200160405180608001604052807f248d97d7f76283d63bec30e7a5876c11c06fca9b275c671c5e33d95bb7e8d729815260200160008152602001600081526020016000815250815260200160405180608001604052807f1a306d439d463b0816fc6fd64cc939318b45eb759ddde4aa106d15d9bd9baaaa815260200160008152602001600081526020016000815250815260200160405180608001604052807f28a8f8372e3c38daced7c00421cb4621f4f1b54ddc27821b0d62d3d6ec7c56cf815260200160008152602001600081526020016000815250815260200160405180608001604052807e94975717f9a8a8bb35152f24d43294071ce320c829f388bc852183e1e2ce7e815260200160008152602001600081526020016000815250815260200160405180608001604052807f04d5ee4c3aa78f7d80fde60d716480d3593f74d4f653ae83f4103246db2e8d65815260200160008152602001600081526020016000815250815260200160405180608001604052807f2a6cf5e9aa03d4336349ad6fb8ed2269c7bef54b8822cc76d08495c12efde187815260200160008152602001600081526020016000815250815260200160405180608001604052807f2304d31eaab960ba9274da43e19ddeb7f792180808fd6e43baae48d7efcba3f3815260200160008152602001600081526020016000815250815260200160405180608001604052807f03fd9ac865a4b2a6d5e7009785817249bff08a7e0726fcb4e1c11d39d199f0b0815260200160008152602001600081526020016000815250815260200160405180608001604052807eb7258ded52bbda2248404d55ee5044798afc3a209193073f7954d4d63b0b64815260200160008152602001600081526020016000815250815260200160405180608001604052807f159f81ada0771799ec38fca2d4bf65ebb13d3a74f3298db36272c5ca65e92d9a815260200160008152602001600081526020016000815250815260200160405180608001604052807f1ef90e67437fbc8550237a75bc28e3bb9000130ea25f0c5471e144cf4264431f815260200160008152602001600081526020016000815250815260200160405180608001604052807f1e65f838515e5ff0196b49aa41a2d2568df739bc176b08ec95a79ed82932e30d815260200160008152602001600081526020016000815250815260200160405180608001604052807f2b1b045def3a166cec6ce768d079ba74b18c844e570e1f826575c1068c94c33f815260200160008152602001600081526020016000815250815260200160405180608001604052807f0832e5753ceb0ff6402543b1109229c165dc2d73bef715e3f1c6e07c168bb173815260200160008152602001600081526020016000815250815260200160405180608001604052807f02f614e9cedfb3dc6b762ae0a37d41bab1b841c2e8b6451bc5a8e3c390b6ad16815260200160008152602001600081526020016000815250815260200160405180608001604052807f0e2427d38bd46a60dd640b8e362cad967370ebb777bedff40f6a0be27e7ed705815260200160008152602001600081526020016000815250815260200160405180608001604052807f0493630b7c670b6deb7c84d414e7ce79049f0ec098c3c7c50768bbe29214a53a815260200160008152602001600081526020016000815250815260200160405180608001604052807f22ead100e8e482674decdab17066c5a26bb1515355d5461a3dc06cc85327cea9815260200160008152602001600081526020016000815250815260200160405180608001604052807f25b3e56e655b42cdaae2626ed2554d48583f1ae35626d04de5084e0b6d2a6f16815260200160008152602001600081526020016000815250815260200160405180608001604052807f1e32752ada8836ef5837a6cde8ff13dbb599c336349e4c584b4fdc0a0cf6f9d0815260200160008152602001600081526020016000815250815260200160405180608001604052807f2fa2a871c15a387cc50f68f6f3c3455b23c00995f05078f672a9864074d412e5815260200160008152602001600081526020016000815250815260200160405180608001604052807f2f569b8a9a4424c9278e1db7311e889f54ccbf10661bab7fcd18e7c7a7d83505815260200160008152602001600081526020016000815250815260200160405180608001604052807f044cb455110a8fdd531ade530234c518a7df93f7332ffd2144165374b246b43d815260200160008152602001600081526020016000815250815260200160405180608001604052807f227808de93906d5d420246157f2e42b191fe8c90adfe118178ddc723a5319025815260200160008152602001600081526020016000815250815260200160405180608001604052807f02fcca2934e046bc623adead873579865d03781ae090ad4a8579d2e7a6800355815260200160008152602001600081526020016000815250815260200160405180608001604052807f0ef915f0ac120b876abccceb344a1d36bad3f3c5ab91a8ddcbec2e060d8befac815260200160008152602001600081526020016000815250815260200160405180608001604052807f1797130f4b7a3e1777eb757bc6f287f6ab0fb85f6be63b09f3b16ef2b1405d3881526020017f0a76225dc04170ae3306c85abab59e608c7f497c20156d4d36c668555decc6e581526020017f1fffb9ec1992d66ba1e77a7b93209af6f8fa76d48acb664796174b5326a31a5c81526020017f25721c4fc15a3f2853b57c338fa538d85f8fbba6c6b9c6090611889b797b9c5f815250815260200160405180608001604052807f0c817fd42d5f7a41215e3d07ba197216adb4c3790705da95eb63b982bfcaf75a81526020017f13abe3f5239915d39f7e13c2c24970b6df8cf86ce00a22002bc15866e52b5a9681526020017f2106feea546224ea12ef7f39987a46c85c1bc3dc29bdbd7a92cd60acb4d391ce81526020017f21ca859468a746b6aaa79474a37dab49f1ca5a28c748bc7157e1b3345bb0f959815250815260200160405180608001604052807f05ccd6255c1e6f0c5cf1f0df934194c62911d14d0321662a8f1a48999e34185b81526020017f0f0e34a64b70a626e464d846674c4c8816c4fb267fe44fe6ea28678cb09490a481526020017f0558531a4e25470c6157794ca36d0e9647dbfcfe350d64838f5b1a8a2de0d4bf81526020017f09d3dca9173ed2faceea125157683d18924cadad3f655a60b72f5864961f1455815250815260200160405180608001604052807f0328cbd54e8c0913493f866ed03d218bf23f92d68aaec48617d4c722e5bd433581526020017f2bf07216e2aff0a223a487b1a7094e07e79e7bcc9798c648ee3347dd5329d34b81526020017f1daf345a58006b736499c583cb76c316d6f78ed6a6dffc82111e11a63fe412df81526020017f176563472456aaa746b694c60e1823611ef39039b2edc7ff391e6f2293d2c404815250815250815250905090565b60408051600280825260608201835260009283929190602083019080368337019050509050838160008151811061178f5761178f612172565b60200260200101818152505082816001815181106117af576117af612172565b60209081029190910101526117c88582600260006117d1565b95945050505050565b6000806117ed6117e7865161185c60201b60201c565b87611862565b905060005b8551811015611837578481101561182f5761182f86828151811061181857611818612172565b60200260200101518361190460201b90919060201c565b6001016117f2565b50821561184957611849816001611904565b61185281611992565b9695505050505050565b60401b90565b61186a612077565b60006040518060c001604052808581526020016040518060600160405280600081526020016000815260200160008152508152602001604051806080016040528060008152602001600081526020016000815260200160008152508152602001600081526020016000151581526020018481525090508381604001516003600481106118f8576118f8612172565b60200201529392505050565b816080015115801561191a575060038260600151145b156119395761192882611aaa565b506020820151526001606090910152565b816080015115801561195057506003826060015114155b1561198e5780826020015183606001516003811061197057611970612172565b60200201526060820180516001919061198a9083906121b1565b9052505b5050565b60008160800151611a015760006119a883611aaa565b60016080850152905060005b60038110156119f7578181600381106119cf576119cf612172565b6020020151846020015182600381106119ea576119ea612172565b60200201526001016119b4565b5050600360608301525b60208201515160015b6003811015611a6a578360600151811015611a625783602001518160038110611a3557611a35612172565b60200201518460200151600183611a4c919061219e565b60038110611a5c57611a5c612172565b60200201525b600101611a0a565b50600183606001818151611a7e919061219e565b905250602083015160608401516000919060038110611a9f57611a9f612172565b602002015292915050565b611ab26120b9565b60005b6003811015611aef5782606001518110611ae757600083602001518260038110611ae157611ae1612172565b60200201525b600101611ab5565b5060005b6003811015611b5e57611b3b83602001518260038110611b1557611b15612172565b602002015184604001518360048110611b3057611b30612172565b602002015190611beb565b83604001518260048110611b5157611b51612172565b6020020152600101611af3565b50604082015160a08301518051602090910151611b7c929190611c18565b6040808401919091528051606081018252600080825260208201819052918101829052905b6003811015611be45783604001518160048110611bc057611bc0612172565b6020020151828260038110611bd757611bd7612172565b6020020152600101611ba1565b5092915050565b60007f30644e72e131a029b85045b68181585d2833e84879b9709143e1f593f00000018284089392505050565b611c206120d7565b600060405180608001604052806000815260200160008152602001600081526020016000815250905060005b6004811015611c8b57858160048110611c6757611c67612172565b6020020151828260048110611c7e57611c7e612172565b6020020152600101611c4c565b50611c9581611d86565b6000611ca3600260086121c4565b905060005b81811015611cd557611cbb838683611e80565b611cc483611ef3565b611ccd83611d86565b600101611ca8565b506000611ce36038836121b1565b9050815b81811015611d3957611d12868260408110611d0457611d04612172565b602002015151856000611b30565b8452611d258460005b6020020151611f33565b8452611d318488611f5d565b600101611ce7565b506000611d48603860086121b1565b9050815b81811015611d7957611d5f858883611e80565b611d6885611ef3565b611d7185611d86565b600101611d4c565b5092979650505050505050565b6000611d9b8260016020020151836000611b30565b90506000611db28360036020020151846002611b30565b90506000611dc98460016020020151856001611b30565b9050611dd58183611beb565b90506000611dec8560036020020151866003611b30565b9050611df88185611beb565b90506000611e068480611beb565b9050611e128180611beb565b9050611e1e8183611beb565b90506000611e2c8680611beb565b9050611e388180611beb565b9050611e448185611beb565b90506000611e528483611beb565b90506000611e608685611beb565b918952506020880191909152604087015260609095019490945250505050565b60005b6004811015611eed57611ece838360408110611ea157611ea1612172565b60200201518260048110611eb757611eb7612172565b6020020151858360048110611b3057611b30612172565b848260048110611ee057611ee0612172565b6020020152600101611e83565b50505050565b60005b600481101561198e57611f14828260048110611d1b57611d1b612172565b828260048110611f2657611f26612172565b6020020152600101611ef6565b600080611f408380612025565b9050611f5683611f508380612025565b90612025565b9392505050565b6000805b6004811015611f9557611f8b848260048110611f7f57611f7f612172565b60200201518390611beb565b9150600101611f61565b5060005b6004811015611eed57611fd9838260048110611fb757611fb7612172565b6020020151858360048110611fce57611fce612172565b602002015190612025565b848260048110611feb57611feb612172565b602002015261200682858360048110611b3057611b30612172565b84826004811061201857612018612172565b6020020152600101611f99565b60007f30644e72e131a029b85045b68181585d2833e84879b9709143e1f593f00000018284099392505050565b60405180604001604052806120656120d7565b81526020016120726120f5565b905290565b6040518060c00160405280600081526020016120916120b9565b815260200161209e6120d7565b81526000602082018190526040820152606001612072612052565b60405180606001604052806003906020820280368337509192915050565b60405180608001604052806004906020820280368337509192915050565b6040518061080001604052806040905b61210d6120d7565b8152602001906001900390816121055790505090565b80516001600160a01b038116811461213a57600080fd5b919050565b6000806040838503121561215257600080fd5b61215b83612123565b915061216960208401612123565b90509250929050565b634e487b7160e01b600052603260045260246000fd5b634e487b7160e01b600052601160045260246000fd5b8181038181111561016057610160612188565b8082018082111561016057610160612188565b6000826121e157634e487b7160e01b600052601260045260246000fd5b500490565b608051612dc56122166000396000818161023a015281816103dc015281816104b4015261055b0152612dc56000f3fe608060405234801561001057600080fd5b50600436106101375760003560e01c806390111b0d116100b8578063d52322831161007c578063d5232283146102ad578063e8295588146102c0578063ebf0c717146102d3578063f207564e146102dc578063f24abd18146102ef578063f2fde38b146102ff57600080fd5b806390111b0d14610235578063a27154ba1461025c578063a513fc9314610264578063a694fc3a14610287578063b69024891461029a57600080fd5b806363f0eee2116100ff57806363f0eee2146101d3578063715018a6146101dc57806375352e75146101e45780638d1ddfb1146102075780638da5cb5b1461021057600080fd5b806305e105b91461013c5780632e17de78146101745780634948041314610189578063602172671461019c578063631c56ef146101ca575b600080fd5b61015f61014a366004612c37565b60266020526000908152604090205460ff1681565b60405190151581526020015b60405180910390f35b610187610182366004612c37565b610312565b005b610187610197366004612c6c565b610406565b6101bc6101aa366004612c96565b60016020526000908152604090205481565b60405190815260200161016b565b6101bc60045481565b6101bc60025481565b6101876104df565b61015f6101f2366004612c37565b60009081526026602052604090205460ff1690565b6101bc60035481565b6000546001600160a01b03165b6040516001600160a01b03909116815260200161016b565b61021d7f000000000000000000000000000000000000000000000000000000000000000081565b6101bc601081565b61026c6104f3565b6040805193845260208401929092529082015260600161016b565b610187610295366004612c37565b61052d565b6101bc6102a8366004612c37565b6105f2565b6101bc6102bb366004612c37565b610609565b6101bc6102ce366004612c37565b610626565b6101bc60055481565b6101876102ea366004612c37565b610636565b6101bc683635c9adc5dea0000081565b61018761030d366004612c96565b6108a4565b80600003610333576040516372fde4ad60e01b815260040160405180910390fd5b33600090815260016020526040902054811115610363576040516333b8c92160e01b815260040160405180910390fd5b3360009081526001602052604081208054839290610382908490612cc7565b909155505033600081815260016020908152604091829020548251858152918201527f7fc4727e062e336010f2c282598ef5f14facb3de68cf8195c2f23e1454b2b74e910160405180910390a26104036001600160a01b037f00000000000000000000000000000000000000000000000000000000000000001633836108df565b50565b61040e610943565b8060000361042f576040516372fde4ad60e01b815260040160405180910390fd5b600254811115610452576040516333b8c92160e01b815260040160405180910390fd5b80600260008282546104649190612cc7565b90915550506040518181526001600160a01b038316907f9f3d007ff7e22f6527af11318e7e2ddf9f00011d0940129e59e0b265eed8db7f9060200160405180910390a26104db6001600160a01b037f00000000000000000000000000000000000000000000000000000000000000001683836108df565b5050565b6104e7610943565b6104f16000610970565b565b600080600060035460000361051b57604051633287af3b60e01b815260040160405180910390fd5b50506003546004546005549193909250565b8060000361054e576040516372fde4ad60e01b815260040160405180910390fd5b6105836001600160a01b037f0000000000000000000000000000000000000000000000000000000000000000163330846109c0565b33600090815260016020526040812080548392906105a2908490612cda565b909155505033600081815260016020908152604091829020548251858152918201527f1449c6dd7851abc30abf37f57715f492010519147cc2652fbc38202c18a6ee90910160405180910390a250565b6016816010811061060257600080fd5b0154905081565b60006006826010811061061e5761061e612ced565b015492915050565b6006816010811061060257600080fd5b33600090815260016020526040902054683635c9adc5dea00000111561066f576040516333b8c92160e01b815260040160405180910390fd5b60008181526026602052604090205460ff16156106a757604051634fc2841960e01b8152600481018290526024015b60405180910390fd5b60035462010000116106cc5760405163d5f676cb60e01b815260040160405180910390fd5b3360009081526001602052604081208054683635c9adc5dea0000092906106f4908490612cc7565b92505081905550683635c9adc5dea00000600260008282546107169190612cda565b90915550506000818152602660205260408120805460ff191660019081179091556003549190610747908390612cda565b90506000815b6001811115610779578161076081612d03565b9250600190506107708282612cda565b901c905061074d565b6004548211156107895760048290555b50839150600090505b60108110156107eb57600183821c166000036107c35781601682601081106107bc576107bc612ced565b01556107eb565b6107e1601682601081106107d9576107d9612ced565b0154836109ff565b9150600101610792565b5061080360035460016107fe9190612cda565b610a24565b6005556003805490600061081683612d03565b909155505060408051838152602081018590527f83086dd2f9a7759c568afebf9730985f32eada5336224c32f153e8089d8f5ea7910160405180910390a133600081815260016020908152604091829020548251878152918201528492917f7de7691ba02c3c903aa6686e4a566130f54d23b424ef7ab590f865a6027e1056910160405180910390a3505050565b6108ac610943565b6001600160a01b0381166108d657604051631e4fbdf760e01b81526000600482015260240161069e565b61040381610970565b6040516001600160a01b0383811660248301526044820183905261093e91859182169063a9059cbb906064015b604051602081830303815290604052915060e01b6020820180516001600160e01b038381831617835250505050610b05565b505050565b6000546001600160a01b031633146104f15760405163118cdaa760e01b815233600482015260240161069e565b600080546001600160a01b038381166001600160a01b0319831681178455604051919092169283917f8be0079c531659141344cd1fd0a4f28419497f9722a3daafe3b4186f6b6457e09190a35050565b6040516001600160a01b0384811660248301528381166044830152606482018390526109f99186918216906323b872dd9060840161090c565b50505050565b600080610a0a610b68565b90506000610a19828686612158565b925050505b92915050565b600081600003610a4c576006610a3c60016010612cc7565b6010811061061e5761061e612ced565b6000806000805b6010811015610afb578086901c600116600103610af35781610a925760168160108110610a8257610a82612ced565b0154935080925060019150610af3565b825b81811015610ac457610aba8560068360108110610ab357610ab3612ced565b01546109ff565b9450600101610a94565b50610ae360168260108110610adb57610adb612ced565b0154856109ff565b9350610af0816001612cda565b92505b600101610a53565b5091949350505050565b6000610b1a6001600160a01b038416836121d6565b90508051600014158015610b3f575080806020019051810190610b3d9190612d1c565b155b1561093e57604051635274afe760e01b81526001600160a01b038416600482015260240161069e565b610b70612b66565b604051806040016040528060405180608001604052807f10dc6e9c006ea38b04b1e03b4bd9490c0d03f98929ca1d7fb56821fd19d3b6e781526020017f0c28145b6a44df3e0149b3d0a30b3bb599df9756d4dd9b84a86b38cfb45a740b81526020017e544b8338791518b2c7645a50392798b21f75bb60e3596170067d00141cac1581526020017f222c01175718386f2e2e82eb122789e352e105a3b8fa852613bc534433ee428b815250815260200160405180610800016040528060405180608001604052807f19b849f69450b06848da1d39bd5e4a4302bb86744edc26238b0878e269ed23e581526020017f265ddfe127dd51bd7239347b758f0a1320eb2cc7450acc1dad47f80c8dcf34d681526020017f199750ec472f1809e0f66a545e1e51624108ac845015c2aa3dfc36bab497d8aa81526020017f157ff3fe65ac7208110f06a5f74302b14d743ea25067f0ffd032f787c7f1cdf8815250815260200160405180608001604052807f2e49c43c4569dd9c5fd35ac45fca33f10b15c590692f8beefe18f4896ac9490281526020017f0e35fb89981890520d4aef2b6d6506c3cb2f0b6973c24fa82731345ffa2d1f1e81526020017f251ad47cb15c4f1105f109ae5e944f1ba9d9e7806d667ffec6fe723002e0b99681526020017f13da07dc64d428369873e97160234641f8beb56fdd05e5f3563fa39d9c22df4e815250815260200160405180608001604052807f0c009b84e650e6d23dc00c7dccef7483a553939689d350cd46e7b89055fd473881526020017f011f16b1c63a854f01992e3956f42d8b04eb650c6d535eb0203dec74befdca0681526020017f0ed69e5e383a688f209d9a561daa79612f3f78d0467ad45485df07093f36754981526020017f04dba94a7b0ce9e221acad41472b6bbe3aec507f5eb3d33f463672264c9f789b815250815260200160405180608001604052807f0a3f2637d840f3a16eb094271c9d237b6036757d4bb50bf7ce732ff1d4fa28e881526020017f259a666f129eea198f8a1c502fdb38fa39b1f075569564b6e54a485d1182323f81526020017f28bf7459c9b2f4c6d8e7d06a4ee3a47f7745d4271038e5157a32fdf7ede0d6a181526020017f0a1ca941f057037526ea200f489be8d4c37c85bbcce6a2aeec91bd6941432447815250815260200160405180608001604052807f0c6f8f958be0e93053d7fd4fc54512855535ed1539f051dcb43a26fd926361cf815260200160008152602001600081526020016000815250815260200160405180608001604052807f123106a93cd17578d426e8128ac9d90aa9e8a00708e296e084dd57e69caaf811815260200160008152602001600081526020016000815250815260200160405180608001604052807f26e1ba52ad9285d97dd3ab52f8e840085e8fa83ff1e8f1877b074867cd2dee75815260200160008152602001600081526020016000815250815260200160405180608001604052807f1cb55cad7bd133de18a64c5c47b9c97cbe4d8b7bf9e095864471537e6a4ae2c5815260200160008152602001600081526020016000815250815260200160405180608001604052807f1dcd73e46acd8f8e0e2c7ce04bde7f6d2a53043d5060a41c7143f08e6e9055d0815260200160008152602001600081526020016000815250815260200160405180608001604052807f011003e32f6d9c66f5852f05474a4def0cda294a0eb4e9b9b12b9bb4512e5574815260200160008152602001600081526020016000815250815260200160405180608001604052807f2b1e809ac1d10ab29ad5f20d03a57dfebadfe5903f58bafed7c508dd2287ae8c815260200160008152602001600081526020016000815250815260200160405180608001604052807f2539de1785b735999fb4dac35ee17ed0ef995d05ab2fc5faeaa69ae87bcec0a5815260200160008152602001600081526020016000815250815260200160405180608001604052807f0c246c5a2ef8ee0126497f222b3e0a0ef4e1c3d41c86d46e43982cb11d77951d815260200160008152602001600081526020016000815250815260200160405180608001604052807f192089c4974f68e95408148f7c0632edbb09e6a6ad1a1c2f3f0305f5d03b527b815260200160008152602001600081526020016000815250815260200160405180608001604052807f1eae0ad8ab68b2f06a0ee36eeb0d0c058529097d91096b756d8fdc2fb5a60d85815260200160008152602001600081526020016000815250815260200160405180608001604052807f179190e5d0e22179e46f8282872abc88db6e2fdc0dee99e69768bd98c5d06bfb815260200160008152602001600081526020016000815250815260200160405180608001604052807f29bb9e2c9076732576e9a81c7ac4b83214528f7db00f31bf6cafe794a9b3cd1c815260200160008152602001600081526020016000815250815260200160405180608001604052807f225d394e42207599403efd0c2464a90d52652645882aac35b10e590e6e691e08815260200160008152602001600081526020016000815250815260200160405180608001604052807f064760623c25c8cf753d238055b444532be13557451c087de09efd454b23fd59815260200160008152602001600081526020016000815250815260200160405180608001604052807f10ba3a0e01df92e87f301c4b716d8a394d67f4bf42a75c10922910a78f6b5b87815260200160008152602001600081526020016000815250815260200160405180608001604052807f0e070bf53f8451b24f9c6e96b0c2a801cb511bc0c242eb9d361b77693f21471c815260200160008152602001600081526020016000815250815260200160405180608001604052807f1b94cd61b051b04dd39755ff93821a73ccd6cb11d2491d8aa7f921014de252fb815260200160008152602001600081526020016000815250815260200160405180608001604052807f1d7cb39bafb8c744e148787a2e70230f9d4e917d5713bb050487b5aa7d74070b815260200160008152602001600081526020016000815250815260200160405180608001604052807f2ec93189bd1ab4f69117d0fe980c80ff8785c2961829f701bb74ac1f303b17db815260200160008152602001600081526020016000815250815260200160405180608001604052807f2db366bfdd36d277a692bb825b86275beac404a19ae07a9082ea46bd83517926815260200160008152602001600081526020016000815250815260200160405180608001604052807f062100eb485db06269655cf186a68532985275428450359adc99cec6960711b8815260200160008152602001600081526020016000815250815260200160405180608001604052807f0761d33c66614aaa570e7f1e8244ca1120243f92fa59e4f900c567bf41f5a59b815260200160008152602001600081526020016000815250815260200160405180608001604052807f20fc411a114d13992c2705aa034e3f315d78608a0f7de4ccf7a72e494855ad0d815260200160008152602001600081526020016000815250815260200160405180608001604052807f25b5c004a4bdfcb5add9ec4e9ab219ba102c67e8b3effb5fc3a30f317250bc5a815260200160008152602001600081526020016000815250815260200160405180608001604052807f23b1822d278ed632a494e58f6df6f5ed038b186d8474155ad87e7dff62b37f4b815260200160008152602001600081526020016000815250815260200160405180608001604052807f22734b4c5c3f9493606c4ba9012499bf0f14d13bfcfcccaa16102a29cc2f69e0815260200160008152602001600081526020016000815250815260200160405180608001604052807f26c0c8fe09eb30b7e27a74dc33492347e5bdff409aa3610254413d3fad795ce5815260200160008152602001600081526020016000815250815260200160405180608001604052807f070dd0ccb6bd7bbae88eac03fa1fbb26196be3083a809829bbd626df348ccad9815260200160008152602001600081526020016000815250815260200160405180608001604052807f12b6595bdb329b6fb043ba78bb28c3bec2c0a6de46d8c5ad6067c4ebfd4250da815260200160008152602001600081526020016000815250815260200160405180608001604052807f248d97d7f76283d63bec30e7a5876c11c06fca9b275c671c5e33d95bb7e8d729815260200160008152602001600081526020016000815250815260200160405180608001604052807f1a306d439d463b0816fc6fd64cc939318b45eb759ddde4aa106d15d9bd9baaaa815260200160008152602001600081526020016000815250815260200160405180608001604052807f28a8f8372e3c38daced7c00421cb4621f4f1b54ddc27821b0d62d3d6ec7c56cf815260200160008152602001600081526020016000815250815260200160405180608001604052807e94975717f9a8a8bb35152f24d43294071ce320c829f388bc852183e1e2ce7e815260200160008152602001600081526020016000815250815260200160405180608001604052807f04d5ee4c3aa78f7d80fde60d716480d3593f74d4f653ae83f4103246db2e8d65815260200160008152602001600081526020016000815250815260200160405180608001604052807f2a6cf5e9aa03d4336349ad6fb8ed2269c7bef54b8822cc76d08495c12efde187815260200160008152602001600081526020016000815250815260200160405180608001604052807f2304d31eaab960ba9274da43e19ddeb7f792180808fd6e43baae48d7efcba3f3815260200160008152602001600081526020016000815250815260200160405180608001604052807f03fd9ac865a4b2a6d5e7009785817249bff08a7e0726fcb4e1c11d39d199f0b0815260200160008152602001600081526020016000815250815260200160405180608001604052807eb7258ded52bbda2248404d55ee5044798afc3a209193073f7954d4d63b0b64815260200160008152602001600081526020016000815250815260200160405180608001604052807f159f81ada0771799ec38fca2d4bf65ebb13d3a74f3298db36272c5ca65e92d9a815260200160008152602001600081526020016000815250815260200160405180608001604052807f1ef90e67437fbc8550237a75bc28e3bb9000130ea25f0c5471e144cf4264431f815260200160008152602001600081526020016000815250815260200160405180608001604052807f1e65f838515e5ff0196b49aa41a2d2568df739bc176b08ec95a79ed82932e30d815260200160008152602001600081526020016000815250815260200160405180608001604052807f2b1b045def3a166cec6ce768d079ba74b18c844e570e1f826575c1068c94c33f815260200160008152602001600081526020016000815250815260200160405180608001604052807f0832e5753ceb0ff6402543b1109229c165dc2d73bef715e3f1c6e07c168bb173815260200160008152602001600081526020016000815250815260200160405180608001604052807f02f614e9cedfb3dc6b762ae0a37d41bab1b841c2e8b6451bc5a8e3c390b6ad16815260200160008152602001600081526020016000815250815260200160405180608001604052807f0e2427d38bd46a60dd640b8e362cad967370ebb777bedff40f6a0be27e7ed705815260200160008152602001600081526020016000815250815260200160405180608001604052807f0493630b7c670b6deb7c84d414e7ce79049f0ec098c3c7c50768bbe29214a53a815260200160008152602001600081526020016000815250815260200160405180608001604052807f22ead100e8e482674decdab17066c5a26bb1515355d5461a3dc06cc85327cea9815260200160008152602001600081526020016000815250815260200160405180608001604052807f25b3e56e655b42cdaae2626ed2554d48583f1ae35626d04de5084e0b6d2a6f16815260200160008152602001600081526020016000815250815260200160405180608001604052807f1e32752ada8836ef5837a6cde8ff13dbb599c336349e4c584b4fdc0a0cf6f9d0815260200160008152602001600081526020016000815250815260200160405180608001604052807f2fa2a871c15a387cc50f68f6f3c3455b23c00995f05078f672a9864074d412e5815260200160008152602001600081526020016000815250815260200160405180608001604052807f2f569b8a9a4424c9278e1db7311e889f54ccbf10661bab7fcd18e7c7a7d83505815260200160008152602001600081526020016000815250815260200160405180608001604052807f044cb455110a8fdd531ade530234c518a7df93f7332ffd2144165374b246b43d815260200160008152602001600081526020016000815250815260200160405180608001604052807f227808de93906d5d420246157f2e42b191fe8c90adfe118178ddc723a5319025815260200160008152602001600081526020016000815250815260200160405180608001604052807f02fcca2934e046bc623adead873579865d03781ae090ad4a8579d2e7a6800355815260200160008152602001600081526020016000815250815260200160405180608001604052807f0ef915f0ac120b876abccceb344a1d36bad3f3c5ab91a8ddcbec2e060d8befac815260200160008152602001600081526020016000815250815260200160405180608001604052807f1797130f4b7a3e1777eb757bc6f287f6ab0fb85f6be63b09f3b16ef2b1405d3881526020017f0a76225dc04170ae3306c85abab59e608c7f497c20156d4d36c668555decc6e581526020017f1fffb9ec1992d66ba1e77a7b93209af6f8fa76d48acb664796174b5326a31a5c81526020017f25721c4fc15a3f2853b57c338fa538d85f8fbba6c6b9c6090611889b797b9c5f815250815260200160405180608001604052807f0c817fd42d5f7a41215e3d07ba197216adb4c3790705da95eb63b982bfcaf75a81526020017f13abe3f5239915d39f7e13c2c24970b6df8cf86ce00a22002bc15866e52b5a9681526020017f2106feea546224ea12ef7f39987a46c85c1bc3dc29bdbd7a92cd60acb4d391ce81526020017f21ca859468a746b6aaa79474a37dab49f1ca5a28c748bc7157e1b3345bb0f959815250815260200160405180608001604052807f05ccd6255c1e6f0c5cf1f0df934194c62911d14d0321662a8f1a48999e34185b81526020017f0f0e34a64b70a626e464d846674c4c8816c4fb267fe44fe6ea28678cb09490a481526020017f0558531a4e25470c6157794ca36d0e9647dbfcfe350d64838f5b1a8a2de0d4bf81526020017f09d3dca9173ed2faceea125157683d18924cadad3f655a60b72f5864961f1455815250815260200160405180608001604052807f0328cbd54e8c0913493f866ed03d218bf23f92d68aaec48617d4c722e5bd433581526020017f2bf07216e2aff0a223a487b1a7094e07e79e7bcc9798c648ee3347dd5329d34b81526020017f1daf345a58006b736499c583cb76c316d6f78ed6a6dffc82111e11a63fe412df81526020017f176563472456aaa746b694c60e1823611ef39039b2edc7ff391e6f2293d2c404815250815250815250905090565b60408051600280825260608201835260009283929190602083019080368337019050509050838160008151811061219157612191612ced565b60200260200101818152505082816001815181106121b1576121b1612ced565b6020026020010181815250506121cb8582600260006121e4565b9150505b9392505050565b60606121cf8383600061226a565b6000806121fb6121f5865160401b90565b876122fd565b905060005b8551811015612245578481101561223d5761223d86828151811061222657612226612ced565b60200260200101518361239f90919063ffffffff16565b600101612200565b5082156122575761225781600161239f565b6122608161242c565b9695505050505050565b60608147101561228f5760405163cd78605960e01b815230600482015260240161069e565b600080856001600160a01b031684866040516122ab9190612d3e565b60006040518083038185875af1925050503d80600081146122e8576040519150601f19603f3d011682016040523d82523d6000602084013e6122ed565b606091505b5091509150612260868383612544565b612305612b8b565b60006040518060c0016040528085815260200160405180606001604052806000815260200160008152602001600081525081526020016040518060800160405280600081526020016000815260200160008152602001600081525081526020016000815260200160001515815260200184815250905083816040015160036004811061239357612393612ced565b60200201529392505050565b81608001511580156123b5575060038260600151145b156123d4576123c3826125a0565b506020820151526001606090910152565b81608001511580156123eb57506003826060015114155b156104db5780826020015183606001516003811061240b5761240b612ced565b602002015260608201805160019190612425908390612cda565b9052505050565b6000816080015161249b576000612442836125a0565b60016080850152905060005b60038110156124915781816003811061246957612469612ced565b60200201518460200151826003811061248457612484612ced565b602002015260010161244e565b5050600360608301525b60208201515160015b60038110156125045783606001518110156124fc57836020015181600381106124cf576124cf612ced565b602002015184602001516001836124e69190612cc7565b600381106124f6576124f6612ced565b60200201525b6001016124a4565b506001836060018181516125189190612cc7565b90525060208301516060840151600091906003811061253957612539612ced565b602002015292915050565b60608261255957612554826126e3565b6121cf565b815115801561257057506001600160a01b0384163b155b1561259957604051639996b31560e01b81526001600160a01b038516600482015260240161069e565b50806121cf565b6125a8612bcd565b60005b60038110156125e557826060015181106125dd576000836020015182600381106125d7576125d7612ced565b60200201525b6001016125ab565b5060005b6003811015612654576126318360200151826003811061260b5761260b612ced565b60200201518460400151836004811061262657612626612ced565b60200201519061270c565b8360400151826004811061264757612647612ced565b60200201526001016125e9565b5061267482604001518360a00151600001518460a0015160200151612739565b6040808401919091528051606081018252600080825260208201819052918101829052905b60038110156126dc57836040015181600481106126b8576126b8612ced565b60200201518282600381106126cf576126cf612ced565b6020020152600101612699565b5092915050565b8051156126f35780518082602001fd5b604051630a12f52160e11b815260040160405180910390fd5b60007f30644e72e131a029b85045b68181585d2833e84879b9709143e1f593f00000018284089392505050565b612741612beb565b600060405180608001604052806000815260200160008152602001600081526020016000815250905060005b60048110156127ac5785816004811061278857612788612ced565b602002015182826004811061279f5761279f612ced565b602002015260010161276d565b506127b6816128a7565b60006127c460026008612d6d565b905060005b818110156127f6576127dc8386836129a1565b6127e583612a0e565b6127ee836128a7565b6001016127c9565b506000612804603883612cda565b9050815b8181101561285a5761283386826040811061282557612825612ced565b602002015151856000612626565b84526128468460005b6020020151612a4e565b84526128528488612a71565b600101612808565b50600061286960386008612cda565b9050815b8181101561289a576128808588836129a1565b61288985612a0e565b612892856128a7565b60010161286d565b5092979650505050505050565b60006128bc8260016020020151836000612626565b905060006128d38360036020020151846002612626565b905060006128ea8460016020020151856001612626565b90506128f6818361270c565b9050600061290d8560036020020151866003612626565b9050612919818561270c565b90506000612927848061270c565b9050612933818061270c565b905061293f818361270c565b9050600061294d868061270c565b9050612959818061270c565b9050612965818561270c565b90506000612973848361270c565b90506000612981868561270c565b918952506020880191909152604087015260609095019490945250505050565b60005b60048110156109f9576129ef8383604081106129c2576129c2612ced565b602002015182600481106129d8576129d8612ced565b602002015185836004811061262657612626612ced565b848260048110612a0157612a01612ced565b60200201526001016129a4565b60005b60048110156104db57612a2f82826004811061283c5761283c612ced565b828260048110612a4157612a41612ced565b6020020152600101612a11565b600080612a5b8380612b39565b90506121cf83612a6b8380612b39565b90612b39565b6000805b6004811015612aa957612a9f848260048110612a9357612a93612ced565b6020020151839061270c565b9150600101612a75565b5060005b60048110156109f957612aed838260048110612acb57612acb612ced565b6020020151858360048110612ae257612ae2612ced565b602002015190612b39565b848260048110612aff57612aff612ced565b6020020152612b1a8285836004811061262657612626612ced565b848260048110612b2c57612b2c612ced565b6020020152600101612aad565b60007f30644e72e131a029b85045b68181585d2833e84879b9709143e1f593f00000018284099392505050565b6040518060400160405280612b79612beb565b8152602001612b86612c09565b905290565b6040518060c0016040528060008152602001612ba5612bcd565b8152602001612bb2612beb565b81526000602082018190526040820152606001612b86612b66565b60405180606001604052806003906020820280368337509192915050565b60405180608001604052806004906020820280368337509192915050565b6040518061080001604052806040905b612c21612beb565b815260200190600190039081612c195790505090565b600060208284031215612c4957600080fd5b5035919050565b80356001600160a01b0381168114612c6757600080fd5b919050565b60008060408385031215612c7f57600080fd5b612c8883612c50565b946020939093013593505050565b600060208284031215612ca857600080fd5b6121cf82612c50565b634e487b7160e01b600052601160045260246000fd5b81810381811115610a1e57610a1e612cb1565b80820180821115610a1e57610a1e612cb1565b634e487b7160e01b600052603260045260246000fd5b600060018201612d1557612d15612cb1565b5060010190565b600060208284031215612d2e57600080fd5b815180151581146121cf57600080fd5b6000825160005b81811015612d5f5760208186018101518583015201612d45565b506000920191825250919050565b600082612d8a57634e487b7160e01b600052601260045260246000fd5b50049056fea2646970667358221220eed233cafff5e4b8389bad71e727fc601b0f36272c28e8d8c40a09b237bacfab64736f6c634300081b0033",
  "devdoc": {
    "errors": {
      "AddressEmptyCode(address)": [
        {
          "details": "There's no code at `target` (it is not a contract)."
        }
      ],
      "AddressInsufficientBalance(address)": [
        {
          "details": "The ETH balance of the account is not enough to perform the operation."
        }
      ],
      "FailedInnerCall()": [
        {
          "details": "A call to an address target failed. The target may have reverted."
        }
      ],
      "OwnableInvalidOwner(address)": [
        {
          "details": "The owner is not a valid owner account. (eg. `address(0)`)"
        }
      ],
      "OwnableUnauthorizedAccount(address)": [
        {
          "details": "The caller account is not authorized to perform an operation."
        }
      ],
      "SafeERC20FailedOperation(address)": [
        {
          "details": "An operation with an ERC20 token failed."
        }
      ]
    },
    "kind": "dev",
    "methods": {
      "owner()": {
        "details": "Returns the address of the current owner."
      },
      "renounceOwnership()": {
        "details": "Leaves the contract without owner. It will not be possible to call `onlyOwner` functions. Can only be called by the current owner. NOTE: Renouncing ownership will leave the contract without an owner, thereby disabling any functionality that is only available to the owner."
      },
      "transferOwnership(address)": {
        "details": "Transfers ownership of the contract to a new account (`newOwner`). Can only be called by the current owner."
      }
    },
    "title": "APICredits",
    "version": 1
  },
  "userdoc": {
    "kind": "user",
    "methods": {},
    "notice": "Private anonymous LLM API credits using ZK proofs + CLAWD token staking. Uses a standard incremental Merkle tree with zero-padding (Semaphore-style). This matches the Noir circuit's binary_merkle_root exactly — every level hashes two children, using precomputed zero hashes for empty subtrees. Economic model:   stake()    → CLAWD sits in stakedBalance (user CAN withdraw)   register() → CLAWD moves to serverClaimable (user CANNOT touch again)   api_call() → burns nullifier offchain (no token movement)",
    "version": 1
  },
  "storageLayout": {
    "storage": [
      {
        "astId": 8,
        "contract": "contracts/APICredits.sol:APICredits",
        "label": "_owner",
        "offset": 0,
        "slot": "0",
        "type": "t_address"
      },
      {
        "astId": 883,
        "contract": "contracts/APICredits.sol:APICredits",
        "label": "stakedBalance",
        "offset": 0,
        "slot": "1",
        "type": "t_mapping(t_address,t_uint256)"
      },
      {
        "astId": 885,
        "contract": "contracts/APICredits.sol:APICredits",
        "label": "serverClaimable",
        "offset": 0,
        "slot": "2",
        "type": "t_uint256"
      },
      {
        "astId": 887,
        "contract": "contracts/APICredits.sol:APICredits",
        "label": "treeSize",
        "offset": 0,
        "slot": "3",
        "type": "t_uint256"
      },
      {
        "astId": 889,
        "contract": "contracts/APICredits.sol:APICredits",
        "label": "depth",
        "offset": 0,
        "slot": "4",
        "type": "t_uint256"
      },
      {
        "astId": 891,
        "contract": "contracts/APICredits.sol:APICredits",
        "label": "root",
        "offset": 0,
        "slot": "5",
        "type": "t_uint256"
      },
      {
        "astId": 895,
        "contract": "contracts/APICredits.sol:APICredits",
        "label": "zeros",
        "offset": 0,
        "slot": "6",
        "type": "t_array(t_uint256)16_storage"
      },
      {
        "astId": 899,
        "contract": "contracts/APICredits.sol:APICredits",
        "label": "filledNodes",
        "offset": 0,
        "slot": "22",
        "type": "t_array(t_uint256)16_storage"
      },
      {
        "astId": 903,
        "contract": "contracts/APICredits.sol:APICredits",
        "label": "commitmentUsed",
        "offset": 0,
        "slot": "38",
        "type": "t_mapping(t_uint256,t_bool)"
      }
    ],
    "types": {
      "t_address": {
        "encoding": "inplace",
        "label": "address",
        "numberOfBytes": "20"
      },
      "t_array(t_uint256)16_storage": {
        "base": "t_uint256",
        "encoding": "inplace",
        "label": "uint256[16]",
        "numberOfBytes": "512"
      },
      "t_bool": {
        "encoding": "inplace",
        "label": "bool",
        "numberOfBytes": "1"
      },
      "t_mapping(t_address,t_uint256)": {
        "encoding": "mapping",
        "key": "t_address",
        "label": "mapping(address => uint256)",
        "numberOfBytes": "32",
        "value": "t_uint256"
      },
      "t_mapping(t_uint256,t_bool)": {
        "encoding": "mapping",
        "key": "t_uint256",
        "label": "mapping(uint256 => bool)",
        "numberOfBytes": "32",
        "value": "t_bool"
      },
      "t_uint256": {
        "encoding": "inplace",
        "label": "uint256",
        "numberOfBytes": "32"
      }
    }
  }
}