{
  "address": "0xc18fad39f72eBe5E54718D904C5012Da74594674",
  "abi": [
    {
      "inputs": [
        {
          "internalType": "address",
          "name": "_paymentToken",
          "type": "address"
        },
        {
          "internalType": "uint256",
          "name": "_pricePerCredit",
          "type": "uint256"
        },
        {
          "internalType": "address",
          "name": "_owner",
          "type": "address"
        }
      ],
      "stateMutability": "nonpayable",
      "type": "constructor"
    },
    {
      "inputs": [
        {
          "internalType": "uint256",
          "name": "commitment",
          "type": "uint256"
        }
      ],
      "name": "APICredits__CommitmentAlreadyUsed",
      "type": "error"
    },
    {
      "inputs": [],
      "name": "APICredits__EmptyTree",
      "type": "error"
    },
    {
      "inputs": [],
      "name": "APICredits__InsufficientStake",
      "type": "error"
    },
    {
      "inputs": [],
      "name": "APICredits__TreeFull",
      "type": "error"
    },
    {
      "inputs": [],
      "name": "APICredits__ZeroAmount",
      "type": "error"
    },
    {
      "inputs": [
        {
          "internalType": "address",
          "name": "target",
          "type": "address"
        }
      ],
      "name": "AddressEmptyCode",
      "type": "error"
    },
    {
      "inputs": [
        {
          "internalType": "address",
          "name": "account",
          "type": "address"
        }
      ],
      "name": "AddressInsufficientBalance",
      "type": "error"
    },
    {
      "inputs": [],
      "name": "FailedInnerCall",
      "type": "error"
    },
    {
      "inputs": [
        {
          "internalType": "address",
          "name": "owner",
          "type": "address"
        }
      ],
      "name": "OwnableInvalidOwner",
      "type": "error"
    },
    {
      "inputs": [
        {
          "internalType": "address",
          "name": "account",
          "type": "address"
        }
      ],
      "name": "OwnableUnauthorizedAccount",
      "type": "error"
    },
    {
      "inputs": [
        {
          "internalType": "address",
          "name": "token",
          "type": "address"
        }
      ],
      "name": "SafeERC20FailedOperation",
      "type": "error"
    },
    {
      "anonymous": false,
      "inputs": [
        {
          "indexed": true,
          "internalType": "address",
          "name": "user",
          "type": "address"
        },
        {
          "indexed": true,
          "internalType": "uint256",
          "name": "index",
          "type": "uint256"
        },
        {
          "indexed": false,
          "internalType": "uint256",
          "name": "commitment",
          "type": "uint256"
        },
        {
          "indexed": false,
          "internalType": "uint256",
          "name": "newStakedBalance",
          "type": "uint256"
        }
      ],
      "name": "CreditRegistered",
      "type": "event"
    },
    {
      "anonymous": false,
      "inputs": [
        {
          "indexed": false,
          "internalType": "uint256",
          "name": "index",
          "type": "uint256"
        },
        {
          "indexed": false,
          "internalType": "uint256",
          "name": "value",
          "type": "uint256"
        }
      ],
      "name": "NewLeaf",
      "type": "event"
    },
    {
      "anonymous": false,
      "inputs": [
        {
          "indexed": true,
          "internalType": "address",
          "name": "previousOwner",
          "type": "address"
        },
        {
          "indexed": true,
          "internalType": "address",
          "name": "newOwner",
          "type": "address"
        }
      ],
      "name": "OwnershipTransferred",
      "type": "event"
    },
    {
      "anonymous": false,
      "inputs": [
        {
          "indexed": true,
          "internalType": "address",
          "name": "to",
          "type": "address"
        },
        {
          "indexed": false,
          "internalType": "uint256",
          "name": "amount",
          "type": "uint256"
        }
      ],
      "name": "ServerClaimed",
      "type": "event"
    },
    {
      "anonymous": false,
      "inputs": [
        {
          "indexed": true,
          "internalType": "address",
          "name": "user",
          "type": "address"
        },
        {
          "indexed": false,
          "internalType": "uint256",
          "name": "amount",
          "type": "uint256"
        },
        {
          "indexed": false,
          "internalType": "uint256",
          "name": "newBalance",
          "type": "uint256"
        }
      ],
      "name": "Staked",
      "type": "event"
    },
    {
      "anonymous": false,
      "inputs": [
        {
          "indexed": true,
          "internalType": "address",
          "name": "user",
          "type": "address"
        },
        {
          "indexed": false,
          "internalType": "uint256",
          "name": "amount",
          "type": "uint256"
        },
        {
          "indexed": false,
          "internalType": "uint256",
          "name": "newBalance",
          "type": "uint256"
        }
      ],
      "name": "Unstaked",
      "type": "event"
    },
    {
      "inputs": [],
      "name": "MAX_DEPTH",
      "outputs": [
        {
          "internalType": "uint256",
          "name": "",
          "type": "uint256"
        }
      ],
      "stateMutability": "view",
      "type": "function"
    },
    {
      "inputs": [
        {
          "internalType": "address",
          "name": "to",
          "type": "address"
        },
        {
          "internalType": "uint256",
          "name": "amount",
          "type": "uint256"
        }
      ],
      "name": "claimServer",
      "outputs": [],
      "stateMutability": "nonpayable",
      "type": "function"
    },
    {
      "inputs": [
        {
          "internalType": "uint256",
          "name": "",
          "type": "uint256"
        }
      ],
      "name": "commitmentUsed",
      "outputs": [
        {
          "internalType": "bool",
          "name": "",
          "type": "bool"
        }
      ],
      "stateMutability": "view",
      "type": "function"
    },
    {
      "inputs": [],
      "name": "depth",
      "outputs": [
        {
          "internalType": "uint256",
          "name": "",
          "type": "uint256"
        }
      ],
      "stateMutability": "view",
      "type": "function"
    },
    {
      "inputs": [
        {
          "internalType": "uint256",
          "name": "",
          "type": "uint256"
        }
      ],
      "name": "filledNodes",
      "outputs": [
        {
          "internalType": "uint256",
          "name": "",
          "type": "uint256"
        }
      ],
      "stateMutability": "view",
      "type": "function"
    },
    {
      "inputs": [],
      "name": "getTreeData",
      "outputs": [
        {
          "internalType": "uint256",
          "name": "size",
          "type": "uint256"
        },
        {
          "internalType": "uint256",
          "name": "treeDepth",
          "type": "uint256"
        },
        {
          "internalType": "uint256",
          "name": "treeRoot",
          "type": "uint256"
        }
      ],
      "stateMutability": "view",
      "type": "function"
    },
    {
      "inputs": [
        {
          "internalType": "uint256",
          "name": "level",
          "type": "uint256"
        }
      ],
      "name": "getZeroHash",
      "outputs": [
        {
          "internalType": "uint256",
          "name": "",
          "type": "uint256"
        }
      ],
      "stateMutability": "view",
      "type": "function"
    },
    {
      "inputs": [
        {
          "internalType": "uint256",
          "name": "_commitment",
          "type": "uint256"
        }
      ],
      "name": "isCommitmentUsed",
      "outputs": [
        {
          "internalType": "bool",
          "name": "",
          "type": "bool"
        }
      ],
      "stateMutability": "view",
      "type": "function"
    },
    {
      "inputs": [],
      "name": "owner",
      "outputs": [
        {
          "internalType": "address",
          "name": "",
          "type": "address"
        }
      ],
      "stateMutability": "view",
      "type": "function"
    },
    {
      "inputs": [],
      "name": "paymentToken",
      "outputs": [
        {
          "internalType": "contract IERC20",
          "name": "",
          "type": "address"
        }
      ],
      "stateMutability": "view",
      "type": "function"
    },
    {
      "inputs": [],
      "name": "pricePerCredit",
      "outputs": [
        {
          "internalType": "uint256",
          "name": "",
          "type": "uint256"
        }
      ],
      "stateMutability": "view",
      "type": "function"
    },
    {
      "inputs": [
        {
          "internalType": "uint256",
          "name": "_commitment",
          "type": "uint256"
        }
      ],
      "name": "register",
      "outputs": [],
      "stateMutability": "nonpayable",
      "type": "function"
    },
    {
      "inputs": [],
      "name": "renounceOwnership",
      "outputs": [],
      "stateMutability": "nonpayable",
      "type": "function"
    },
    {
      "inputs": [],
      "name": "root",
      "outputs": [
        {
          "internalType": "uint256",
          "name": "",
          "type": "uint256"
        }
      ],
      "stateMutability": "view",
      "type": "function"
    },
    {
      "inputs": [],
      "name": "serverClaimable",
      "outputs": [
        {
          "internalType": "uint256",
          "name": "",
          "type": "uint256"
        }
      ],
      "stateMutability": "view",
      "type": "function"
    },
    {
      "inputs": [
        {
          "internalType": "uint256",
          "name": "amount",
          "type": "uint256"
        }
      ],
      "name": "stake",
      "outputs": [],
      "stateMutability": "nonpayable",
      "type": "function"
    },
    {
      "inputs": [
        {
          "internalType": "uint256",
          "name": "amount",
          "type": "uint256"
        },
        {
          "internalType": "uint256[]",
          "name": "commitments",
          "type": "uint256[]"
        }
      ],
      "name": "stakeAndRegister",
      "outputs": [],
      "stateMutability": "nonpayable",
      "type": "function"
    },
    {
      "inputs": [
        {
          "internalType": "address",
          "name": "",
          "type": "address"
        }
      ],
      "name": "stakedBalance",
      "outputs": [
        {
          "internalType": "uint256",
          "name": "",
          "type": "uint256"
        }
      ],
      "stateMutability": "view",
      "type": "function"
    },
    {
      "inputs": [
        {
          "internalType": "address",
          "name": "newOwner",
          "type": "address"
        }
      ],
      "name": "transferOwnership",
      "outputs": [],
      "stateMutability": "nonpayable",
      "type": "function"
    },
    {
      "inputs": [],
      "name": "treeSize",
      "outputs": [
        {
          "internalType": "uint256",
          "name": "",
          "type": "uint256"
        }
      ],
      "stateMutability": "view",
      "type": "function"
    },
    {
      "inputs": [
        {
          "internalType": "uint256",
          "name": "amount",
          "type": "uint256"
        }
      ],
      "name": "unstake",
      "outputs": [],
      "stateMutability": "nonpayable",
      "type": "function"
    },
    {
      "inputs": [
        {
          "internalType": "uint256",
          "name": "",
          "type": "uint256"
        }
      ],
      "name": "zeros",
      "outputs": [
        {
          "internalType": "uint256",
          "name": "",
          "type": "uint256"
        }
      ],
      "stateMutability": "view",
      "type": "function"
    }
  ],
  "transactionHash": "0x998d724dc8e4ee88d76b33c0d8ab8e45f7c13cd93e9bdfff486d9999015c2d8d",
  "args": [
    "0x9f86dB9fc6f7c9408e8Fda3Ff8ce4e78ac7a6b07",
    "2000000000000000000000",
    "0x4f8AC2fAa3cAcACAcB7b4997A48F377fe88dFd46"
  ],
  "numDeployments": 1,
  "solcInputHash": "0fce351fc1b63a9eeb09c8e4bff5c041",
  "bytecode": "0x60c060405234801561001057600080fd5b5060405161533838038061533883398101604081905261002f91612145565b806001600160a01b03811661005e57604051631e4fbdf760e01b81526000600482015260240160405180910390fd5b610067816100f7565b506001600160a01b03831660805260a0829052600060068190555b61008e600160106121ad565b8110156100ee576100c7600682601081106100ab576100ab612181565b0154600683601081106100c0576100c0612181565b0154610147565b60066100d48360016121c0565b601081106100e4576100e4612181565b0155600101610082565b505050506121f5565b600080546001600160a01b038381166001600160a01b0319831681178455604051919092169283917f8be0079c531659141344cd1fd0a4f28419497f9722a3daafe3b4186f6b6457e09190a35050565b60008061015261016c565b9050600061016182868661175c565b925050505b92915050565b610174612058565b604051806040016040528060405180608001604052807f10dc6e9c006ea38b04b1e03b4bd9490c0d03f98929ca1d7fb56821fd19d3b6e781526020017f0c28145b6a44df3e0149b3d0a30b3bb599df9756d4dd9b84a86b38cfb45a740b81526020017e544b8338791518b2c7645a50392798b21f75bb60e3596170067d00141cac1581526020017f222c01175718386f2e2e82eb122789e352e105a3b8fa852613bc534433ee428b815250815260200160405180610800016040528060405180608001604052807f19b849f69450b06848da1d39bd5e4a4302bb86744edc26238b0878e269ed23e581526020017f265ddfe127dd51bd7239347b758f0a1320eb2cc7450acc1dad47f80c8dcf34d681526020017f199750ec472f1809e0f66a545e1e51624108ac845015c2aa3dfc36bab497d8aa81526020017f157ff3fe65ac7208110f06a5f74302b14d743ea25067f0ffd032f787c7f1cdf8815250815260200160405180608001604052807f2e49c43c4569dd9c5fd35ac45fca33f10b15c590692f8beefe18f4896ac9490281526020017f0e35fb89981890520d4aef2b6d6506c3cb2f0b6973c24fa82731345ffa2d1f1e81526020017f251ad47cb15c4f1105f109ae5e944f1ba9d9e7806d667ffec6fe723002e0b99681526020017f13da07dc64d428369873e97160234641f8beb56fdd05e5f3563fa39d9c22df4e815250815260200160405180608001604052807f0c009b84e650e6d23dc00c7dccef7483a553939689d350cd46e7b89055fd473881526020017f011f16b1c63a854f01992e3956f42d8b04eb650c6d535eb0203dec74befdca0681526020017f0ed69e5e383a688f209d9a561daa79612f3f78d0467ad45485df07093f36754981526020017f04dba94a7b0ce9e221acad41472b6bbe3aec507f5eb3d33f463672264c9f789b815250815260200160405180608001604052807f0a3f2637d840f3a16eb094271c9d237b6036757d4bb50bf7ce732ff1d4fa28e881526020017f259a666f129eea198f8a1c502fdb38fa39b1f075569564b6e54a485d1182323f81526020017f28bf7459c9b2f4c6d8e7d06a4ee3a47f7745d4271038e5157a32fdf7ede0d6a181526020017f0a1ca941f057037526ea200f489be8d4c37c85bbcce6a2aeec91bd6941432447815250815260200160405180608001604052807f0c6f8f958be0e93053d7fd4fc54512855535ed1539f051dcb43a26fd926361cf815260200160008152602001600081526020016000815250815260200160405180608001604052807f123106a93cd17578d426e8128ac9d90aa9e8a00708e296e084dd57e69caaf811815260200160008152602001600081526020016000815250815260200160405180608001604052807f26e1ba52ad9285d97dd3ab52f8e840085e8fa83ff1e8f1877b074867cd2dee75815260200160008152602001600081526020016000815250815260200160405180608001604052807f1cb55cad7bd133de18a64c5c47b9c97cbe4d8b7bf9e095864471537e6a4ae2c5815260200160008152602001600081526020016000815250815260200160405180608001604052807f1dcd73e46acd8f8e0e2c7ce04bde7f6d2a53043d5060a41c7143f08e6e9055d0815260200160008152602001600081526020016000815250815260200160405180608001604052807f011003e32f6d9c66f5852f05474a4def0cda294a0eb4e9b9b12b9bb4512e5574815260200160008152602001600081526020016000815250815260200160405180608001604052807f2b1e809ac1d10ab29ad5f20d03a57dfebadfe5903f58bafed7c508dd2287ae8c815260200160008152602001600081526020016000815250815260200160405180608001604052807f2539de1785b735999fb4dac35ee17ed0ef995d05ab2fc5faeaa69ae87bcec0a5815260200160008152602001600081526020016000815250815260200160405180608001604052807f0c246c5a2ef8ee0126497f222b3e0a0ef4e1c3d41c86d46e43982cb11d77951d815260200160008152602001600081526020016000815250815260200160405180608001604052807f192089c4974f68e95408148f7c0632edbb09e6a6ad1a1c2f3f0305f5d03b527b815260200160008152602001600081526020016000815250815260200160405180608001604052807f1eae0ad8ab68b2f06a0ee36eeb0d0c058529097d91096b756d8fdc2fb5a60d85815260200160008152602001600081526020016000815250815260200160405180608001604052807f179190e5d0e22179e46f8282872abc88db6e2fdc0dee99e69768bd98c5d06bfb815260200160008152602001600081526020016000815250815260200160405180608001604052807f29bb9e2c9076732576e9a81c7ac4b83214528f7db00f31bf6cafe794a9b3cd1c815260200160008152602001600081526020016000815250815260200160405180608001604052807f225d394e42207599403efd0c2464a90d52652645882aac35b10e590e6e691e08815260200160008152602001600081526020016000815250815260200160405180608001604052807f064760623c25c8cf753d238055b444532be13557451c087de09efd454b23fd59815260200160008152602001600081526020016000815250815260200160405180608001604052807f10ba3a0e01df92e87f301c4b716d8a394d67f4bf42a75c10922910a78f6b5b87815260200160008152602001600081526020016000815250815260200160405180608001604052807f0e070bf53f8451b24f9c6e96b0c2a801cb511bc0c242eb9d361b77693f21471c815260200160008152602001600081526020016000815250815260200160405180608001604052807f1b94cd61b051b04dd39755ff93821a73ccd6cb11d2491d8aa7f921014de252fb815260200160008152602001600081526020016000815250815260200160405180608001604052807f1d7cb39bafb8c744e148787a2e70230f9d4e917d5713bb050487b5aa7d74070b815260200160008152602001600081526020016000815250815260200160405180608001604052807f2ec93189bd1ab4f69117d0fe980c80ff8785c2961829f701bb74ac1f303b17db815260200160008152602001600081526020016000815250815260200160405180608001604052807f2db366bfdd36d277a692bb825b86275beac404a19ae07a9082ea46bd83517926815260200160008152602001600081526020016000815250815260200160405180608001604052807f062100eb485db06269655cf186a68532985275428450359adc99cec6960711b8815260200160008152602001600081526020016000815250815260200160405180608001604052807f0761d33c66614aaa570e7f1e8244ca1120243f92fa59e4f900c567bf41f5a59b815260200160008152602001600081526020016000815250815260200160405180608001604052807f20fc411a114d13992c2705aa034e3f315d78608a0f7de4ccf7a72e494855ad0d815260200160008152602001600081526020016000815250815260200160405180608001604052807f25b5c004a4bdfcb5add9ec4e9ab219ba102c67e8b3effb5fc3a30f317250bc5a815260200160008152602001600081526020016000815250815260200160405180608001604052807f23b1822d278ed632a494e58f6df6f5ed038b186d8474155ad87e7dff62b37f4b815260200160008152602001600081526020016000815250815260200160405180608001604052807f22734b4c5c3f9493606c4ba9012499bf0f14d13bfcfcccaa16102a29cc2f69e0815260200160008152602001600081526020016000815250815260200160405180608001604052807f26c0c8fe09eb30b7e27a74dc33492347e5bdff409aa3610254413d3fad795ce5815260200160008152602001600081526020016000815250815260200160405180608001604052807f070dd0ccb6bd7bbae88eac03fa1fbb26196be3083a809829bbd626df348ccad9815260200160008152602001600081526020016000815250815260200160405180608001604052807f12b6595bdb329b6fb043ba78bb28c3bec2c0a6de46d8c5ad6067c4ebfd4250da815260200160008152602001600081526020016000815250815260200160405180608001604052807f248d97d7f76283d63bec30e7a5876c11c06fca9b275c671c5e33d95bb7e8d729815260200160008152602001600081526020016000815250815260200160405180608001604052807f1a306d439d463b0816fc6fd64cc939318b45eb759ddde4aa106d15d9bd9baaaa815260200160008152602001600081526020016000815250815260200160405180608001604052807f28a8f8372e3c38daced7c00421cb4621f4f1b54ddc27821b0d62d3d6ec7c56cf815260200160008152602001600081526020016000815250815260200160405180608001604052807e94975717f9a8a8bb35152f24d43294071ce320c829f388bc852183e1e2ce7e815260200160008152602001600081526020016000815250815260200160405180608001604052807f04d5ee4c3aa78f7d80fde60d716480d3593f74d4f653ae83f4103246db2e8d65815260200160008152602001600081526020016000815250815260200160405180608001604052807f2a6cf5e9aa03d4336349ad6fb8ed2269c7bef54b8822cc76d08495c12efde187815260200160008152602001600081526020016000815250815260200160405180608001604052807f2304d31eaab960ba9274da43e19ddeb7f792180808fd6e43baae48d7efcba3f3815260200160008152602001600081526020016000815250815260200160405180608001604052807f03fd9ac865a4b2a6d5e7009785817249bff08a7e0726fcb4e1c11d39d199f0b0815260200160008152602001600081526020016000815250815260200160405180608001604052807eb7258ded52bbda2248404d55ee5044798afc3a209193073f7954d4d63b0b64815260200160008152602001600081526020016000815250815260200160405180608001604052807f159f81ada0771799ec38fca2d4bf65ebb13d3a74f3298db36272c5ca65e92d9a815260200160008152602001600081526020016000815250815260200160405180608001604052807f1ef90e67437fbc8550237a75bc28e3bb9000130ea25f0c5471e144cf4264431f815260200160008152602001600081526020016000815250815260200160405180608001604052807f1e65f838515e5ff0196b49aa41a2d2568df739bc176b08ec95a79ed82932e30d815260200160008152602001600081526020016000815250815260200160405180608001604052807f2b1b045def3a166cec6ce768d079ba74b18c844e570e1f826575c1068c94c33f815260200160008152602001600081526020016000815250815260200160405180608001604052807f0832e5753ceb0ff6402543b1109229c165dc2d73bef715e3f1c6e07c168bb173815260200160008152602001600081526020016000815250815260200160405180608001604052807f02f614e9cedfb3dc6b762ae0a37d41bab1b841c2e8b6451bc5a8e3c390b6ad16815260200160008152602001600081526020016000815250815260200160405180608001604052807f0e2427d38bd46a60dd640b8e362cad967370ebb777bedff40f6a0be27e7ed705815260200160008152602001600081526020016000815250815260200160405180608001604052807f0493630b7c670b6deb7c84d414e7ce79049f0ec098c3c7c50768bbe29214a53a815260200160008152602001600081526020016000815250815260200160405180608001604052807f22ead100e8e482674decdab17066c5a26bb1515355d5461a3dc06cc85327cea9815260200160008152602001600081526020016000815250815260200160405180608001604052807f25b3e56e655b42cdaae2626ed2554d48583f1ae35626d04de5084e0b6d2a6f16815260200160008152602001600081526020016000815250815260200160405180608001604052807f1e32752ada8836ef5837a6cde8ff13dbb599c336349e4c584b4fdc0a0cf6f9d0815260200160008152602001600081526020016000815250815260200160405180608001604052807f2fa2a871c15a387cc50f68f6f3c3455b23c00995f05078f672a9864074d412e5815260200160008152602001600081526020016000815250815260200160405180608001604052807f2f569b8a9a4424c9278e1db7311e889f54ccbf10661bab7fcd18e7c7a7d83505815260200160008152602001600081526020016000815250815260200160405180608001604052807f044cb455110a8fdd531ade530234c518a7df93f7332ffd2144165374b246b43d815260200160008152602001600081526020016000815250815260200160405180608001604052807f227808de93906d5d420246157f2e42b191fe8c90adfe118178ddc723a5319025815260200160008152602001600081526020016000815250815260200160405180608001604052807f02fcca2934e046bc623adead873579865d03781ae090ad4a8579d2e7a6800355815260200160008152602001600081526020016000815250815260200160405180608001604052807f0ef915f0ac120b876abccceb344a1d36bad3f3c5ab91a8ddcbec2e060d8befac815260200160008152602001600081526020016000815250815260200160405180608001604052807f1797130f4b7a3e1777eb757bc6f287f6ab0fb85f6be63b09f3b16ef2b1405d3881526020017f0a76225dc04170ae3306c85abab59e608c7f497c20156d4d36c668555decc6e581526020017f1fffb9ec1992d66ba1e77a7b93209af6f8fa76d48acb664796174b5326a31a5c81526020017f25721c4fc15a3f2853b57c338fa538d85f8fbba6c6b9c6090611889b797b9c5f815250815260200160405180608001604052807f0c817fd42d5f7a41215e3d07ba197216adb4c3790705da95eb63b982bfcaf75a81526020017f13abe3f5239915d39f7e13c2c24970b6df8cf86ce00a22002bc15866e52b5a9681526020017f2106feea546224ea12ef7f39987a46c85c1bc3dc29bdbd7a92cd60acb4d391ce81526020017f21ca859468a746b6aaa79474a37dab49f1ca5a28c748bc7157e1b3345bb0f959815250815260200160405180608001604052807f05ccd6255c1e6f0c5cf1f0df934194c62911d14d0321662a8f1a48999e34185b81526020017f0f0e34a64b70a626e464d846674c4c8816c4fb267fe44fe6ea28678cb09490a481526020017f0558531a4e25470c6157794ca36d0e9647dbfcfe350d64838f5b1a8a2de0d4bf81526020017f09d3dca9173ed2faceea125157683d18924cadad3f655a60b72f5864961f1455815250815260200160405180608001604052807f0328cbd54e8c0913493f866ed03d218bf23f92d68aaec48617d4c722e5bd433581526020017f2bf07216e2aff0a223a487b1a7094e07e79e7bcc9798c648ee3347dd5329d34b81526020017f1daf345a58006b736499c583cb76c316d6f78ed6a6dffc82111e11a63fe412df81526020017f176563472456aaa746b694c60e1823611ef39039b2edc7ff391e6f2293d2c404815250815250815250905090565b60408051600280825260608201835260009283929190602083019080368337019050509050838160008151811061179557611795612181565b60200260200101818152505082816001815181106117b5576117b5612181565b60209081029190910101526117ce8582600260006117d7565b95945050505050565b6000806117f36117ed865161186260201b60201c565b87611868565b905060005b855181101561183d57848110156118355761183586828151811061181e5761181e612181565b60200260200101518361190a60201b90919060201c565b6001016117f8565b50821561184f5761184f81600161190a565b61185881611998565b9695505050505050565b60401b90565b61187061207d565b60006040518060c001604052808581526020016040518060600160405280600081526020016000815260200160008152508152602001604051806080016040528060008152602001600081526020016000815260200160008152508152602001600081526020016000151581526020018481525090508381604001516003600481106118fe576118fe612181565b60200201529392505050565b8160800151158015611920575060038260600151145b1561193f5761192e82611ab0565b506020820151526001606090910152565b816080015115801561195657506003826060015114155b156119945780826020015183606001516003811061197657611976612181565b6020020152606082018051600191906119909083906121c0565b9052505b5050565b60008160800151611a075760006119ae83611ab0565b60016080850152905060005b60038110156119fd578181600381106119d5576119d5612181565b6020020151846020015182600381106119f0576119f0612181565b60200201526001016119ba565b5050600360608301525b60208201515160015b6003811015611a70578360600151811015611a685783602001518160038110611a3b57611a3b612181565b60200201518460200151600183611a5291906121ad565b60038110611a6257611a62612181565b60200201525b600101611a10565b50600183606001818151611a8491906121ad565b905250602083015160608401516000919060038110611aa557611aa5612181565b602002015292915050565b611ab86120bf565b60005b6003811015611af55782606001518110611aed57600083602001518260038110611ae757611ae7612181565b60200201525b600101611abb565b5060005b6003811015611b6457611b4183602001518260038110611b1b57611b1b612181565b602002015184604001518360048110611b3657611b36612181565b602002015190611bf1565b83604001518260048110611b5757611b57612181565b6020020152600101611af9565b50604082015160a08301518051602090910151611b82929190611c1e565b6040808401919091528051606081018252600080825260208201819052918101829052905b6003811015611bea5783604001518160048110611bc657611bc6612181565b6020020151828260038110611bdd57611bdd612181565b6020020152600101611ba7565b5092915050565b60007f30644e72e131a029b85045b68181585d2833e84879b9709143e1f593f00000018284089392505050565b611c266120dd565b600060405180608001604052806000815260200160008152602001600081526020016000815250905060005b6004811015611c9157858160048110611c6d57611c6d612181565b6020020151828260048110611c8457611c84612181565b6020020152600101611c52565b50611c9b81611d8c565b6000611ca9600260086121d3565b905060005b81811015611cdb57611cc1838683611e86565b611cca83611ef9565b611cd383611d8c565b600101611cae565b506000611ce96038836121c0565b9050815b81811015611d3f57611d18868260408110611d0a57611d0a612181565b602002015151856000611b36565b8452611d2b8460005b6020020151611f39565b8452611d378488611f63565b600101611ced565b506000611d4e603860086121c0565b9050815b81811015611d7f57611d65858883611e86565b611d6e85611ef9565b611d7785611d8c565b600101611d52565b5092979650505050505050565b6000611da18260016020020151836000611b36565b90506000611db88360036020020151846002611b36565b90506000611dcf8460016020020151856001611b36565b9050611ddb8183611bf1565b90506000611df28560036020020151866003611b36565b9050611dfe8185611bf1565b90506000611e0c8480611bf1565b9050611e188180611bf1565b9050611e248183611bf1565b90506000611e328680611bf1565b9050611e3e8180611bf1565b9050611e4a8185611bf1565b90506000611e588483611bf1565b90506000611e668685611bf1565b918952506020880191909152604087015260609095019490945250505050565b60005b6004811015611ef357611ed4838360408110611ea757611ea7612181565b60200201518260048110611ebd57611ebd612181565b6020020151858360048110611b3657611b36612181565b848260048110611ee657611ee6612181565b6020020152600101611e89565b50505050565b60005b600481101561199457611f1a828260048110611d2157611d21612181565b828260048110611f2c57611f2c612181565b6020020152600101611efc565b600080611f46838061202b565b9050611f5c83611f56838061202b565b9061202b565b9392505050565b6000805b6004811015611f9b57611f91848260048110611f8557611f85612181565b60200201518390611bf1565b9150600101611f67565b5060005b6004811015611ef357611fdf838260048110611fbd57611fbd612181565b6020020151858360048110611fd457611fd4612181565b60200201519061202b565b848260048110611ff157611ff1612181565b602002015261200c82858360048110611b3657611b36612181565b84826004811061201e5761201e612181565b6020020152600101611f9f565b60007f30644e72e131a029b85045b68181585d2833e84879b9709143e1f593f00000018284099392505050565b604051806040016040528061206b6120dd565b81526020016120786120fb565b905290565b6040518060c00160405280600081526020016120976120bf565b81526020016120a46120dd565b81526000602082018190526040820152606001612078612058565b60405180606001604052806003906020820280368337509192915050565b60405180608001604052806004906020820280368337509192915050565b6040518061080001604052806040905b6121136120dd565b81526020019060019003908161210b5790505090565b80516001600160a01b038116811461214057600080fd5b919050565b60008060006060848603121561215a57600080fd5b61216384612129565b92506020840151915061217860408501612129565b90509250925092565b634e487b7160e01b600052603260045260246000fd5b634e487b7160e01b600052601160045260246000fd5b8181038181111561016657610166612197565b8082018082111561016657610166612197565b6000826121f057634e487b7160e01b600052601260045260246000fd5b500490565b60805160a0516130df612259600039600081816103290152818161054001528181610843015281816109a701528181610a500152610a8501526000818161019901528181610415015281816104ed0152818161060b015261075601526130df6000f3fe608060405234801561001057600080fd5b50600436106101425760003560e01c80638da5cb5b116100b8578063d52322831161007c578063d5232283146102cf578063e8295588146102e2578063ebf0c717146102f5578063f207564e146102fe578063f2fde38b14610311578063f3ab90c31461032457600080fd5b80638da5cb5b1461026d578063a27154ba1461027e578063a513fc9314610286578063a694fc3a146102a9578063b6902489146102bc57600080fd5b8063602172671161010a57806360217267146101f9578063631c56ef1461022757806363f0eee214610230578063715018a61461023957806375352e75146102415780638d1ddfb11461026457600080fd5b806305e105b9146101475780632e17de781461017f5780633013ce291461019457806349480413146101d3578063553b7450146101e6575b600080fd5b61016a610155366004612ed0565b60266020526000908152604090205460ff1681565b60405190151581526020015b60405180910390f35b61019261018d366004612ed0565b61034b565b005b6101bb7f000000000000000000000000000000000000000000000000000000000000000081565b6040516001600160a01b039091168152602001610176565b6101926101e1366004612f05565b61043f565b6101926101f4366004612f2f565b610518565b610219610207366004612fb0565b60016020526000908152604090205481565b604051908152602001610176565b61021960045481565b61021960025481565b6101926106da565b61016a61024f366004612ed0565b60009081526026602052604090205460ff1690565b61021960035481565b6000546001600160a01b03166101bb565b610219601081565b61028e6106ee565b60408051938452602084019290925290820152606001610176565b6101926102b7366004612ed0565b610728565b6102196102ca366004612ed0565b6107ed565b6102196102dd366004612ed0565b610804565b6102196102f0366004612ed0565b610821565b61021960055481565b61019261030c366004612ed0565b610831565b61019261031f366004612fb0565b61088a565b6102197f000000000000000000000000000000000000000000000000000000000000000081565b8060000361036c576040516372fde4ad60e01b815260040160405180910390fd5b3360009081526001602052604090205481111561039c576040516333b8c92160e01b815260040160405180910390fd5b33600090815260016020526040812080548392906103bb908490612fe1565b909155505033600081815260016020908152604091829020548251858152918201527f7fc4727e062e336010f2c282598ef5f14facb3de68cf8195c2f23e1454b2b74e910160405180910390a261043c6001600160a01b037f00000000000000000000000000000000000000000000000000000000000000001633836108c5565b50565b610447610929565b80600003610468576040516372fde4ad60e01b815260040160405180910390fd5b60025481111561048b576040516333b8c92160e01b815260040160405180910390fd5b806002600082825461049d9190612fe1565b90915550506040518181526001600160a01b038316907f9f3d007ff7e22f6527af11318e7e2ddf9f00011d0940129e59e0b265eed8db7f9060200160405180910390a26105146001600160a01b037f00000000000000000000000000000000000000000000000000000000000000001683836108c5565b5050565b82600003610539576040516372fde4ad60e01b815260040160405180910390fd5b60006105657f000000000000000000000000000000000000000000000000000000000000000085612ff4565b90508181146105bb5760405162461bcd60e51b815260206004820152601960248201527f636f6d6d69746d656e7420636f756e74206d69736d617463680000000000000060448201526064015b60405180910390fd5b600081116105fe5760405162461bcd60e51b815260206004820152601060248201526f185b5bdd5b9d081d1bdbc81cdb585b1b60821b60448201526064016105b2565b6106336001600160a01b037f000000000000000000000000000000000000000000000000000000000000000016333087610956565b3360009081526001602052604081208054869290610652908490613016565b909155505033600081815260016020908152604091829020548251888152918201527f1449c6dd7851abc30abf37f57715f492010519147cc2652fbc38202c18a6ee90910160405180910390a260005b818110156106d3576106cb8484838181106106bf576106bf613029565b90506020020135610995565b6001016106a2565b5050505050565b6106e2610929565b6106ec6000610c43565b565b600080600060035460000361071657604051633287af3b60e01b815260040160405180910390fd5b50506003546004546005549193909250565b80600003610749576040516372fde4ad60e01b815260040160405180910390fd5b61077e6001600160a01b037f000000000000000000000000000000000000000000000000000000000000000016333084610956565b336000908152600160205260408120805483929061079d908490613016565b909155505033600081815260016020908152604091829020548251858152918201527f1449c6dd7851abc30abf37f57715f492010519147cc2652fbc38202c18a6ee90910160405180910390a250565b601681601081106107fd57600080fd5b0154905081565b60006006826010811061081957610819613029565b015492915050565b600681601081106107fd57600080fd5b336000908152600160205260409020547f00000000000000000000000000000000000000000000000000000000000000001115610881576040516333b8c92160e01b815260040160405180910390fd5b61043c81610995565b610892610929565b6001600160a01b0381166108bc57604051631e4fbdf760e01b8152600060048201526024016105b2565b61043c81610c43565b6040516001600160a01b0383811660248301526044820183905261092491859182169063a9059cbb906064015b604051602081830303815290604052915060e01b6020820180516001600160e01b038381831617835250505050610c93565b505050565b6000546001600160a01b031633146106ec5760405163118cdaa760e01b81523360048201526024016105b2565b6040516001600160a01b03848116602483015283811660448301526064820183905261098f9186918216906323b872dd906084016108f2565b50505050565b336000908152600160205260409020547f000000000000000000000000000000000000000000000000000000000000000011156109e5576040516333b8c92160e01b815260040160405180910390fd5b60008181526026602052604090205460ff1615610a1857604051634fc2841960e01b8152600481018290526024016105b2565b6003546201000011610a3d5760405163d5f676cb60e01b815260040160405180910390fd5b33600090815260016020526040812080547f00000000000000000000000000000000000000000000000000000000000000009290610a7c908490612fe1565b925050819055507f000000000000000000000000000000000000000000000000000000000000000060026000828254610ab59190613016565b90915550506000818152602660205260408120805460ff191660019081179091556003549190610ae6908390613016565b90506000815b6001811115610b185781610aff8161303f565b925060019050610b0f8282613016565b901c9050610aec565b600454821115610b285760048290555b50839150600090505b6010811015610b8a57600183821c16600003610b62578160168260108110610b5b57610b5b613029565b0155610b8a565b610b8060168260108110610b7857610b78613029565b015483610cf6565b9150600101610b31565b50610ba26003546001610b9d9190613016565b610d1b565b60055560038054906000610bb58361303f565b909155505060408051838152602081018590527f83086dd2f9a7759c568afebf9730985f32eada5336224c32f153e8089d8f5ea7910160405180910390a133600081815260016020908152604091829020548251878152918201528492917f7de7691ba02c3c903aa6686e4a566130f54d23b424ef7ab590f865a6027e1056910160405180910390a3505050565b600080546001600160a01b038381166001600160a01b0319831681178455604051919092169283917f8be0079c531659141344cd1fd0a4f28419497f9722a3daafe3b4186f6b6457e09190a35050565b6000610ca86001600160a01b03841683610dfc565b90508051600014158015610ccd575080806020019051810190610ccb9190613058565b155b1561092457604051635274afe760e01b81526001600160a01b03841660048201526024016105b2565b600080610d01610e11565b90506000610d10828686612401565b925050505b92915050565b600081600003610d43576006610d3360016010612fe1565b6010811061081957610819613029565b6000806000805b6010811015610df2578086901c600116600103610dea5781610d895760168160108110610d7957610d79613029565b0154935080925060019150610dea565b825b81811015610dbb57610db18560068360108110610daa57610daa613029565b0154610cf6565b9450600101610d8b565b50610dda60168260108110610dd257610dd2613029565b015485610cf6565b9350610de7816001613016565b92505b600101610d4a565b5091949350505050565b6060610e0a8383600061247d565b9392505050565b610e19612dff565b604051806040016040528060405180608001604052807f10dc6e9c006ea38b04b1e03b4bd9490c0d03f98929ca1d7fb56821fd19d3b6e781526020017f0c28145b6a44df3e0149b3d0a30b3bb599df9756d4dd9b84a86b38cfb45a740b81526020017e544b8338791518b2c7645a50392798b21f75bb60e3596170067d00141cac1581526020017f222c01175718386f2e2e82eb122789e352e105a3b8fa852613bc534433ee428b815250815260200160405180610800016040528060405180608001604052807f19b849f69450b06848da1d39bd5e4a4302bb86744edc26238b0878e269ed23e581526020017f265ddfe127dd51bd7239347b758f0a1320eb2cc7450acc1dad47f80c8dcf34d681526020017f199750ec472f1809e0f66a545e1e51624108ac845015c2aa3dfc36bab497d8aa81526020017f157ff3fe65ac7208110f06a5f74302b14d743ea25067f0ffd032f787c7f1cdf8815250815260200160405180608001604052807f2e49c43c4569dd9c5fd35ac45fca33f10b15c590692f8beefe18f4896ac9490281526020017f0e35fb89981890520d4aef2b6d6506c3cb2f0b6973c24fa82731345ffa2d1f1e81526020017f251ad47cb15c4f1105f109ae5e944f1ba9d9e7806d667ffec6fe723002e0b99681526020017f13da07dc64d428369873e97160234641f8beb56fdd05e5f3563fa39d9c22df4e815250815260200160405180608001604052807f0c009b84e650e6d23dc00c7dccef7483a553939689d350cd46e7b89055fd473881526020017f011f16b1c63a854f01992e3956f42d8b04eb650c6d535eb0203dec74befdca0681526020017f0ed69e5e383a688f209d9a561daa79612f3f78d0467ad45485df07093f36754981526020017f04dba94a7b0ce9e221acad41472b6bbe3aec507f5eb3d33f463672264c9f789b815250815260200160405180608001604052807f0a3f2637d840f3a16eb094271c9d237b6036757d4bb50bf7ce732ff1d4fa28e881526020017f259a666f129eea198f8a1c502fdb38fa39b1f075569564b6e54a485d1182323f81526020017f28bf7459c9b2f4c6d8e7d06a4ee3a47f7745d4271038e5157a32fdf7ede0d6a181526020017f0a1ca941f057037526ea200f489be8d4c37c85bbcce6a2aeec91bd6941432447815250815260200160405180608001604052807f0c6f8f958be0e93053d7fd4fc54512855535ed1539f051dcb43a26fd926361cf815260200160008152602001600081526020016000815250815260200160405180608001604052807f123106a93cd17578d426e8128ac9d90aa9e8a00708e296e084dd57e69caaf811815260200160008152602001600081526020016000815250815260200160405180608001604052807f26e1ba52ad9285d97dd3ab52f8e840085e8fa83ff1e8f1877b074867cd2dee75815260200160008152602001600081526020016000815250815260200160405180608001604052807f1cb55cad7bd133de18a64c5c47b9c97cbe4d8b7bf9e095864471537e6a4ae2c5815260200160008152602001600081526020016000815250815260200160405180608001604052807f1dcd73e46acd8f8e0e2c7ce04bde7f6d2a53043d5060a41c7143f08e6e9055d0815260200160008152602001600081526020016000815250815260200160405180608001604052807f011003e32f6d9c66f5852f05474a4def0cda294a0eb4e9b9b12b9bb4512e5574815260200160008152602001600081526020016000815250815260200160405180608001604052807f2b1e809ac1d10ab29ad5f20d03a57dfebadfe5903f58bafed7c508dd2287ae8c815260200160008152602001600081526020016000815250815260200160405180608001604052807f2539de1785b735999fb4dac35ee17ed0ef995d05ab2fc5faeaa69ae87bcec0a5815260200160008152602001600081526020016000815250815260200160405180608001604052807f0c246c5a2ef8ee0126497f222b3e0a0ef4e1c3d41c86d46e43982cb11d77951d815260200160008152602001600081526020016000815250815260200160405180608001604052807f192089c4974f68e95408148f7c0632edbb09e6a6ad1a1c2f3f0305f5d03b527b815260200160008152602001600081526020016000815250815260200160405180608001604052807f1eae0ad8ab68b2f06a0ee36eeb0d0c058529097d91096b756d8fdc2fb5a60d85815260200160008152602001600081526020016000815250815260200160405180608001604052807f179190e5d0e22179e46f8282872abc88db6e2fdc0dee99e69768bd98c5d06bfb815260200160008152602001600081526020016000815250815260200160405180608001604052807f29bb9e2c9076732576e9a81c7ac4b83214528f7db00f31bf6cafe794a9b3cd1c815260200160008152602001600081526020016000815250815260200160405180608001604052807f225d394e42207599403efd0c2464a90d52652645882aac35b10e590e6e691e08815260200160008152602001600081526020016000815250815260200160405180608001604052807f064760623c25c8cf753d238055b444532be13557451c087de09efd454b23fd59815260200160008152602001600081526020016000815250815260200160405180608001604052807f10ba3a0e01df92e87f301c4b716d8a394d67f4bf42a75c10922910a78f6b5b87815260200160008152602001600081526020016000815250815260200160405180608001604052807f0e070bf53f8451b24f9c6e96b0c2a801cb511bc0c242eb9d361b77693f21471c815260200160008152602001600081526020016000815250815260200160405180608001604052807f1b94cd61b051b04dd39755ff93821a73ccd6cb11d2491d8aa7f921014de252fb815260200160008152602001600081526020016000815250815260200160405180608001604052807f1d7cb39bafb8c744e148787a2e70230f9d4e917d5713bb050487b5aa7d74070b815260200160008152602001600081526020016000815250815260200160405180608001604052807f2ec93189bd1ab4f69117d0fe980c80ff8785c2961829f701bb74ac1f303b17db815260200160008152602001600081526020016000815250815260200160405180608001604052807f2db366bfdd36d277a692bb825b86275beac404a19ae07a9082ea46bd83517926815260200160008152602001600081526020016000815250815260200160405180608001604052807f062100eb485db06269655cf186a68532985275428450359adc99cec6960711b8815260200160008152602001600081526020016000815250815260200160405180608001604052807f0761d33c66614aaa570e7f1e8244ca1120243f92fa59e4f900c567bf41f5a59b815260200160008152602001600081526020016000815250815260200160405180608001604052807f20fc411a114d13992c2705aa034e3f315d78608a0f7de4ccf7a72e494855ad0d815260200160008152602001600081526020016000815250815260200160405180608001604052807f25b5c004a4bdfcb5add9ec4e9ab219ba102c67e8b3effb5fc3a30f317250bc5a815260200160008152602001600081526020016000815250815260200160405180608001604052807f23b1822d278ed632a494e58f6df6f5ed038b186d8474155ad87e7dff62b37f4b815260200160008152602001600081526020016000815250815260200160405180608001604052807f22734b4c5c3f9493606c4ba9012499bf0f14d13bfcfcccaa16102a29cc2f69e0815260200160008152602001600081526020016000815250815260200160405180608001604052807f26c0c8fe09eb30b7e27a74dc33492347e5bdff409aa3610254413d3fad795ce5815260200160008152602001600081526020016000815250815260200160405180608001604052807f070dd0ccb6bd7bbae88eac03fa1fbb26196be3083a809829bbd626df348ccad9815260200160008152602001600081526020016000815250815260200160405180608001604052807f12b6595bdb329b6fb043ba78bb28c3bec2c0a6de46d8c5ad6067c4ebfd4250da815260200160008152602001600081526020016000815250815260200160405180608001604052807f248d97d7f76283d63bec30e7a5876c11c06fca9b275c671c5e33d95bb7e8d729815260200160008152602001600081526020016000815250815260200160405180608001604052807f1a306d439d463b0816fc6fd64cc939318b45eb759ddde4aa106d15d9bd9baaaa815260200160008152602001600081526020016000815250815260200160405180608001604052807f28a8f8372e3c38daced7c00421cb4621f4f1b54ddc27821b0d62d3d6ec7c56cf815260200160008152602001600081526020016000815250815260200160405180608001604052807e94975717f9a8a8bb35152f24d43294071ce320c829f388bc852183e1e2ce7e815260200160008152602001600081526020016000815250815260200160405180608001604052807f04d5ee4c3aa78f7d80fde60d716480d3593f74d4f653ae83f4103246db2e8d65815260200160008152602001600081526020016000815250815260200160405180608001604052807f2a6cf5e9aa03d4336349ad6fb8ed2269c7bef54b8822cc76d08495c12efde187815260200160008152602001600081526020016000815250815260200160405180608001604052807f2304d31eaab960ba9274da43e19ddeb7f792180808fd6e43baae48d7efcba3f3815260200160008152602001600081526020016000815250815260200160405180608001604052807f03fd9ac865a4b2a6d5e7009785817249bff08a7e0726fcb4e1c11d39d199f0b0815260200160008152602001600081526020016000815250815260200160405180608001604052807eb7258ded52bbda2248404d55ee5044798afc3a209193073f7954d4d63b0b64815260200160008152602001600081526020016000815250815260200160405180608001604052807f159f81ada0771799ec38fca2d4bf65ebb13d3a74f3298db36272c5ca65e92d9a815260200160008152602001600081526020016000815250815260200160405180608001604052807f1ef90e67437fbc8550237a75bc28e3bb9000130ea25f0c5471e144cf4264431f815260200160008152602001600081526020016000815250815260200160405180608001604052807f1e65f838515e5ff0196b49aa41a2d2568df739bc176b08ec95a79ed82932e30d815260200160008152602001600081526020016000815250815260200160405180608001604052807f2b1b045def3a166cec6ce768d079ba74b18c844e570e1f826575c1068c94c33f815260200160008152602001600081526020016000815250815260200160405180608001604052807f0832e5753ceb0ff6402543b1109229c165dc2d73bef715e3f1c6e07c168bb173815260200160008152602001600081526020016000815250815260200160405180608001604052807f02f614e9cedfb3dc6b762ae0a37d41bab1b841c2e8b6451bc5a8e3c390b6ad16815260200160008152602001600081526020016000815250815260200160405180608001604052807f0e2427d38bd46a60dd640b8e362cad967370ebb777bedff40f6a0be27e7ed705815260200160008152602001600081526020016000815250815260200160405180608001604052807f0493630b7c670b6deb7c84d414e7ce79049f0ec098c3c7c50768bbe29214a53a815260200160008152602001600081526020016000815250815260200160405180608001604052807f22ead100e8e482674decdab17066c5a26bb1515355d5461a3dc06cc85327cea9815260200160008152602001600081526020016000815250815260200160405180608001604052807f25b3e56e655b42cdaae2626ed2554d48583f1ae35626d04de5084e0b6d2a6f16815260200160008152602001600081526020016000815250815260200160405180608001604052807f1e32752ada8836ef5837a6cde8ff13dbb599c336349e4c584b4fdc0a0cf6f9d0815260200160008152602001600081526020016000815250815260200160405180608001604052807f2fa2a871c15a387cc50f68f6f3c3455b23c00995f05078f672a9864074d412e5815260200160008152602001600081526020016000815250815260200160405180608001604052807f2f569b8a9a4424c9278e1db7311e889f54ccbf10661bab7fcd18e7c7a7d83505815260200160008152602001600081526020016000815250815260200160405180608001604052807f044cb455110a8fdd531ade530234c518a7df93f7332ffd2144165374b246b43d815260200160008152602001600081526020016000815250815260200160405180608001604052807f227808de93906d5d420246157f2e42b191fe8c90adfe118178ddc723a5319025815260200160008152602001600081526020016000815250815260200160405180608001604052807f02fcca2934e046bc623adead873579865d03781ae090ad4a8579d2e7a6800355815260200160008152602001600081526020016000815250815260200160405180608001604052807f0ef915f0ac120b876abccceb344a1d36bad3f3c5ab91a8ddcbec2e060d8befac815260200160008152602001600081526020016000815250815260200160405180608001604052807f1797130f4b7a3e1777eb757bc6f287f6ab0fb85f6be63b09f3b16ef2b1405d3881526020017f0a76225dc04170ae3306c85abab59e608c7f497c20156d4d36c668555decc6e581526020017f1fffb9ec1992d66ba1e77a7b93209af6f8fa76d48acb664796174b5326a31a5c81526020017f25721c4fc15a3f2853b57c338fa538d85f8fbba6c6b9c6090611889b797b9c5f815250815260200160405180608001604052807f0c817fd42d5f7a41215e3d07ba197216adb4c3790705da95eb63b982bfcaf75a81526020017f13abe3f5239915d39f7e13c2c24970b6df8cf86ce00a22002bc15866e52b5a9681526020017f2106feea546224ea12ef7f39987a46c85c1bc3dc29bdbd7a92cd60acb4d391ce81526020017f21ca859468a746b6aaa79474a37dab49f1ca5a28c748bc7157e1b3345bb0f959815250815260200160405180608001604052807f05ccd6255c1e6f0c5cf1f0df934194c62911d14d0321662a8f1a48999e34185b81526020017f0f0e34a64b70a626e464d846674c4c8816c4fb267fe44fe6ea28678cb09490a481526020017f0558531a4e25470c6157794ca36d0e9647dbfcfe350d64838f5b1a8a2de0d4bf81526020017f09d3dca9173ed2faceea125157683d18924cadad3f655a60b72f5864961f1455815250815260200160405180608001604052807f0328cbd54e8c0913493f866ed03d218bf23f92d68aaec48617d4c722e5bd433581526020017f2bf07216e2aff0a223a487b1a7094e07e79e7bcc9798c648ee3347dd5329d34b81526020017f1daf345a58006b736499c583cb76c316d6f78ed6a6dffc82111e11a63fe412df81526020017f176563472456aaa746b694c60e1823611ef39039b2edc7ff391e6f2293d2c404815250815250815250905090565b60408051600280825260608201835260009283929190602083019080368337019050509050838160008151811061243a5761243a613029565b602002602001018181525050828160018151811061245a5761245a613029565b60200260200101818152505061247485826002600061251a565b95945050505050565b6060814710156124a25760405163cd78605960e01b81523060048201526024016105b2565b600080856001600160a01b031684866040516124be919061307a565b60006040518083038185875af1925050503d80600081146124fb576040519150601f19603f3d011682016040523d82523d6000602084013e612500565b606091505b5091509150612510868383612596565b9695505050505050565b60008061253161252b865160401b90565b876125f2565b905060005b855181101561257b57848110156125735761257386828151811061255c5761255c613029565b60200260200101518361269490919063ffffffff16565b600101612536565b50821561258d5761258d816001612694565b61251081612721565b6060826125ab576125a682612839565b610e0a565b81511580156125c257506001600160a01b0384163b155b156125eb57604051639996b31560e01b81526001600160a01b03851660048201526024016105b2565b5080610e0a565b6125fa612e24565b60006040518060c0016040528085815260200160405180606001604052806000815260200160008152602001600081525081526020016040518060800160405280600081526020016000815260200160008152602001600081525081526020016000815260200160001515815260200184815250905083816040015160036004811061268857612688613029565b60200201529392505050565b81608001511580156126aa575060038260600151145b156126c9576126b882612862565b506020820151526001606090910152565b81608001511580156126e057506003826060015114155b156105145780826020015183606001516003811061270057612700613029565b60200201526060820180516001919061271a908390613016565b9052505050565b6000816080015161279057600061273783612862565b60016080850152905060005b60038110156127865781816003811061275e5761275e613029565b60200201518460200151826003811061277957612779613029565b6020020152600101612743565b5050600360608301525b60208201515160015b60038110156127f95783606001518110156127f157836020015181600381106127c4576127c4613029565b602002015184602001516001836127db9190612fe1565b600381106127eb576127eb613029565b60200201525b600101612799565b5060018360600181815161280d9190612fe1565b90525060208301516060840151600091906003811061282e5761282e613029565b602002015292915050565b8051156128495780518082602001fd5b604051630a12f52160e11b815260040160405180910390fd5b61286a612e66565b60005b60038110156128a7578260600151811061289f5760008360200151826003811061289957612899613029565b60200201525b60010161286d565b5060005b6003811015612916576128f3836020015182600381106128cd576128cd613029565b6020020151846040015183600481106128e8576128e8613029565b6020020151906129a5565b8360400151826004811061290957612909613029565b60200201526001016128ab565b5061293682604001518360a00151600001518460a00151602001516129d2565b6040808401919091528051606081018252600080825260208201819052918101829052905b600381101561299e578360400151816004811061297a5761297a613029565b602002015182826003811061299157612991613029565b602002015260010161295b565b5092915050565b60007f30644e72e131a029b85045b68181585d2833e84879b9709143e1f593f00000018284089392505050565b6129da612e84565b600060405180608001604052806000815260200160008152602001600081526020016000815250905060005b6004811015612a4557858160048110612a2157612a21613029565b6020020151828260048110612a3857612a38613029565b6020020152600101612a06565b50612a4f81612b40565b6000612a5d60026008612ff4565b905060005b81811015612a8f57612a75838683612c3a565b612a7e83612ca7565b612a8783612b40565b600101612a62565b506000612a9d603883613016565b9050815b81811015612af357612acc868260408110612abe57612abe613029565b6020020151518560006128e8565b8452612adf8460005b6020020151612ce7565b8452612aeb8488612d0a565b600101612aa1565b506000612b0260386008613016565b9050815b81811015612b3357612b19858883612c3a565b612b2285612ca7565b612b2b85612b40565b600101612b06565b5092979650505050505050565b6000612b5582600160200201518360006128e8565b90506000612b6c83600360200201518460026128e8565b90506000612b8384600160200201518560016128e8565b9050612b8f81836129a5565b90506000612ba685600360200201518660036128e8565b9050612bb281856129a5565b90506000612bc084806129a5565b9050612bcc81806129a5565b9050612bd881836129a5565b90506000612be686806129a5565b9050612bf281806129a5565b9050612bfe81856129a5565b90506000612c0c84836129a5565b90506000612c1a86856129a5565b918952506020880191909152604087015260609095019490945250505050565b60005b600481101561098f57612c88838360408110612c5b57612c5b613029565b60200201518260048110612c7157612c71613029565b60200201518583600481106128e8576128e8613029565b848260048110612c9a57612c9a613029565b6020020152600101612c3d565b60005b600481101561051457612cc8828260048110612ad557612ad5613029565b828260048110612cda57612cda613029565b6020020152600101612caa565b600080612cf48380612dd2565b9050610e0a83612d048380612dd2565b90612dd2565b6000805b6004811015612d4257612d38848260048110612d2c57612d2c613029565b602002015183906129a5565b9150600101612d0e565b5060005b600481101561098f57612d86838260048110612d6457612d64613029565b6020020151858360048110612d7b57612d7b613029565b602002015190612dd2565b848260048110612d9857612d98613029565b6020020152612db3828583600481106128e8576128e8613029565b848260048110612dc557612dc5613029565b6020020152600101612d46565b60007f30644e72e131a029b85045b68181585d2833e84879b9709143e1f593f00000018284099392505050565b6040518060400160405280612e12612e84565b8152602001612e1f612ea2565b905290565b6040518060c0016040528060008152602001612e3e612e66565b8152602001612e4b612e84565b81526000602082018190526040820152606001612e1f612dff565b60405180606001604052806003906020820280368337509192915050565b60405180608001604052806004906020820280368337509192915050565b6040518061080001604052806040905b612eba612e84565b815260200190600190039081612eb25790505090565b600060208284031215612ee257600080fd5b5035919050565b80356001600160a01b0381168114612f0057600080fd5b919050565b60008060408385031215612f1857600080fd5b612f2183612ee9565b946020939093013593505050565b600080600060408486031215612f4457600080fd5b83359250602084013567ffffffffffffffff811115612f6257600080fd5b8401601f81018613612f7357600080fd5b803567ffffffffffffffff811115612f8a57600080fd5b8660208260051b8401011115612f9f57600080fd5b939660209190910195509293505050565b600060208284031215612fc257600080fd5b610e0a82612ee9565b634e487b7160e01b600052601160045260246000fd5b81810381811115610d1557610d15612fcb565b60008261301157634e487b7160e01b600052601260045260246000fd5b500490565b80820180821115610d1557610d15612fcb565b634e487b7160e01b600052603260045260246000fd5b60006001820161305157613051612fcb565b5060010190565b60006020828403121561306a57600080fd5b81518015158114610e0a57600080fd5b6000825160005b8181101561309b5760208186018101518583015201613081565b50600092019182525091905056fea26469706673582212209ae6d3fdfc0518d3888a0e0b33ecc0846478c49a95bccf3fbb7f7140c443cda764736f6c634300081b0033",
  "devdoc": {
    "errors": {
      "AddressEmptyCode(address)": [
        {
          "details": "There's no code at `target` (it is not a contract)."
        }
      ],
      "AddressInsufficientBalance(address)": [
        {
          "details": "The ETH balance of the account is not enough to perform the operation."
        }
      ],
      "FailedInnerCall()": [
        {
          "details": "A call to an address target failed. The target may have reverted."
        }
      ],
      "OwnableInvalidOwner(address)": [
        {
          "details": "The owner is not a valid owner account. (eg. `address(0)`)"
        }
      ],
      "OwnableUnauthorizedAccount(address)": [
        {
          "details": "The caller account is not authorized to perform an operation."
        }
      ],
      "SafeERC20FailedOperation(address)": [
        {
          "details": "An operation with an ERC20 token failed."
        }
      ]
    },
    "kind": "dev",
    "methods": {
      "owner()": {
        "details": "Returns the address of the current owner."
      },
      "renounceOwnership()": {
        "details": "Leaves the contract without owner. It will not be possible to call `onlyOwner` functions. Can only be called by the current owner. NOTE: Renouncing ownership will leave the contract without an owner, thereby disabling any functionality that is only available to the owner."
      },
      "stakeAndRegister(uint256,uint256[])": {
        "params": {
          "amount": "Total tokens to stake (must cover pricePerCredit * commitments.length)",
          "commitments": "One commitment per credit"
        }
      },
      "transferOwnership(address)": {
        "details": "Transfers ownership of the contract to a new account (`newOwner`). Can only be called by the current owner."
      }
    },
    "title": "APICredits",
    "version": 1
  },
  "userdoc": {
    "kind": "user",
    "methods": {
      "stakeAndRegister(uint256,uint256[])": {
        "notice": "Stake tokens and register all credits in one transaction."
      }
    },
    "notice": "Private anonymous LLM API credits using ZK proofs + ERC-20 token staking. Token-agnostic and forkable — accepts any ERC-20 set at deploy time. PRICE_PER_CREDIT is a static constructor param. Uses a standard incremental Merkle tree with zero-padding (Semaphore-style). This matches the Noir circuit's binary_merkle_root exactly — every level hashes two children, using precomputed zero hashes for empty subtrees. Economic model:   stake()    → tokens sit in stakedBalance (user CAN withdraw)   register() → tokens move to serverClaimable (user CANNOT touch again)   api_call() → burns nullifier offchain (no token movement)",
    "version": 1
  },
  "storageLayout": {
    "storage": [
      {
        "astId": 8,
        "contract": "contracts/APICredits.sol:APICredits",
        "label": "_owner",
        "offset": 0,
        "slot": "0",
        "type": "t_address"
      },
      {
        "astId": 1558,
        "contract": "contracts/APICredits.sol:APICredits",
        "label": "stakedBalance",
        "offset": 0,
        "slot": "1",
        "type": "t_mapping(t_address,t_uint256)"
      },
      {
        "astId": 1560,
        "contract": "contracts/APICredits.sol:APICredits",
        "label": "serverClaimable",
        "offset": 0,
        "slot": "2",
        "type": "t_uint256"
      },
      {
        "astId": 1562,
        "contract": "contracts/APICredits.sol:APICredits",
        "label": "treeSize",
        "offset": 0,
        "slot": "3",
        "type": "t_uint256"
      },
      {
        "astId": 1564,
        "contract": "contracts/APICredits.sol:APICredits",
        "label": "depth",
        "offset": 0,
        "slot": "4",
        "type": "t_uint256"
      },
      {
        "astId": 1566,
        "contract": "contracts/APICredits.sol:APICredits",
        "label": "root",
        "offset": 0,
        "slot": "5",
        "type": "t_uint256"
      },
      {
        "astId": 1570,
        "contract": "contracts/APICredits.sol:APICredits",
        "label": "zeros",
        "offset": 0,
        "slot": "6",
        "type": "t_array(t_uint256)16_storage"
      },
      {
        "astId": 1574,
        "contract": "contracts/APICredits.sol:APICredits",
        "label": "filledNodes",
        "offset": 0,
        "slot": "22",
        "type": "t_array(t_uint256)16_storage"
      },
      {
        "astId": 1578,
        "contract": "contracts/APICredits.sol:APICredits",
        "label": "commitmentUsed",
        "offset": 0,
        "slot": "38",
        "type": "t_mapping(t_uint256,t_bool)"
      }
    ],
    "types": {
      "t_address": {
        "encoding": "inplace",
        "label": "address",
        "numberOfBytes": "20"
      },
      "t_array(t_uint256)16_storage": {
        "base": "t_uint256",
        "encoding": "inplace",
        "label": "uint256[16]",
        "numberOfBytes": "512"
      },
      "t_bool": {
        "encoding": "inplace",
        "label": "bool",
        "numberOfBytes": "1"
      },
      "t_mapping(t_address,t_uint256)": {
        "encoding": "mapping",
        "key": "t_address",
        "label": "mapping(address => uint256)",
        "numberOfBytes": "32",
        "value": "t_uint256"
      },
      "t_mapping(t_uint256,t_bool)": {
        "encoding": "mapping",
        "key": "t_uint256",
        "label": "mapping(uint256 => bool)",
        "numberOfBytes": "32",
        "value": "t_bool"
      },
      "t_uint256": {
        "encoding": "inplace",
        "label": "uint256",
        "numberOfBytes": "32"
      }
    }
  }
}