{
  "address": "0xaca9733Cc19aD837899dc7D1170aF1d5367C332E",
  "abi": [
    {
      "inputs": [
        {
          "internalType": "address",
          "name": "_uniswapPool",
          "type": "address"
        },
        {
          "internalType": "address",
          "name": "_chainlinkEthUsd",
          "type": "address"
        },
        {
          "internalType": "address",
          "name": "_owner",
          "type": "address"
        }
      ],
      "stateMutability": "nonpayable",
      "type": "constructor"
    },
    {
      "inputs": [],
      "name": "CLAWDPricing__ZeroPriceOracle",
      "type": "error"
    },
    {
      "inputs": [],
      "name": "CLAWDPricing__ZeroValue",
      "type": "error"
    },
    {
      "inputs": [
        {
          "internalType": "address",
          "name": "owner",
          "type": "address"
        }
      ],
      "name": "OwnableInvalidOwner",
      "type": "error"
    },
    {
      "inputs": [
        {
          "internalType": "address",
          "name": "account",
          "type": "address"
        }
      ],
      "name": "OwnableUnauthorizedAccount",
      "type": "error"
    },
    {
      "inputs": [],
      "name": "T",
      "type": "error"
    },
    {
      "anonymous": false,
      "inputs": [
        {
          "indexed": false,
          "internalType": "uint256",
          "name": "oldPrice",
          "type": "uint256"
        },
        {
          "indexed": false,
          "internalType": "uint256",
          "name": "newPrice",
          "type": "uint256"
        }
      ],
      "name": "CreditPriceUSDUpdated",
      "type": "event"
    },
    {
      "anonymous": false,
      "inputs": [
        {
          "indexed": false,
          "internalType": "uint256",
          "name": "oldPrice",
          "type": "uint256"
        },
        {
          "indexed": false,
          "internalType": "uint256",
          "name": "newPrice",
          "type": "uint256"
        }
      ],
      "name": "EthUsdPriceUpdated",
      "type": "event"
    },
    {
      "anonymous": false,
      "inputs": [
        {
          "indexed": true,
          "internalType": "address",
          "name": "previousOwner",
          "type": "address"
        },
        {
          "indexed": true,
          "internalType": "address",
          "name": "newOwner",
          "type": "address"
        }
      ],
      "name": "OwnershipTransferred",
      "type": "event"
    },
    {
      "inputs": [],
      "name": "TWAP_WINDOW",
      "outputs": [
        {
          "internalType": "uint32",
          "name": "",
          "type": "uint32"
        }
      ],
      "stateMutability": "view",
      "type": "function"
    },
    {
      "inputs": [],
      "name": "chainlinkEthUsd",
      "outputs": [
        {
          "internalType": "contract AggregatorV3Interface",
          "name": "",
          "type": "address"
        }
      ],
      "stateMutability": "view",
      "type": "function"
    },
    {
      "inputs": [],
      "name": "chainlinkStalenessThreshold",
      "outputs": [
        {
          "internalType": "uint256",
          "name": "",
          "type": "uint256"
        }
      ],
      "stateMutability": "view",
      "type": "function"
    },
    {
      "inputs": [],
      "name": "creditPriceUSD",
      "outputs": [
        {
          "internalType": "uint256",
          "name": "",
          "type": "uint256"
        }
      ],
      "stateMutability": "view",
      "type": "function"
    },
    {
      "inputs": [],
      "name": "ethUsdPrice",
      "outputs": [
        {
          "internalType": "uint256",
          "name": "",
          "type": "uint256"
        }
      ],
      "stateMutability": "view",
      "type": "function"
    },
    {
      "inputs": [],
      "name": "getClawdPerEth",
      "outputs": [
        {
          "internalType": "uint256",
          "name": "clawdPerEth",
          "type": "uint256"
        }
      ],
      "stateMutability": "view",
      "type": "function"
    },
    {
      "inputs": [],
      "name": "getClawdUsdPrice",
      "outputs": [
        {
          "internalType": "uint256",
          "name": "clawdUsd",
          "type": "uint256"
        }
      ],
      "stateMutability": "view",
      "type": "function"
    },
    {
      "inputs": [],
      "name": "getCreditPriceInCLAWD",
      "outputs": [
        {
          "internalType": "uint256",
          "name": "priceInCLAWD",
          "type": "uint256"
        }
      ],
      "stateMutability": "view",
      "type": "function"
    },
    {
      "inputs": [],
      "name": "getEthUsdPrice",
      "outputs": [
        {
          "internalType": "uint256",
          "name": "",
          "type": "uint256"
        }
      ],
      "stateMutability": "view",
      "type": "function"
    },
    {
      "inputs": [],
      "name": "getOracleData",
      "outputs": [
        {
          "internalType": "uint256",
          "name": "clawdPerEth",
          "type": "uint256"
        },
        {
          "internalType": "uint256",
          "name": "ethUsd",
          "type": "uint256"
        },
        {
          "internalType": "uint256",
          "name": "pricePerCreditCLAWD",
          "type": "uint256"
        },
        {
          "internalType": "uint256",
          "name": "usdPerCredit",
          "type": "uint256"
        },
        {
          "internalType": "uint256",
          "name": "clawdUsd",
          "type": "uint256"
        }
      ],
      "stateMutability": "view",
      "type": "function"
    },
    {
      "inputs": [],
      "name": "owner",
      "outputs": [
        {
          "internalType": "address",
          "name": "",
          "type": "address"
        }
      ],
      "stateMutability": "view",
      "type": "function"
    },
    {
      "inputs": [],
      "name": "renounceOwnership",
      "outputs": [],
      "stateMutability": "nonpayable",
      "type": "function"
    },
    {
      "inputs": [
        {
          "internalType": "uint256",
          "name": "newThreshold",
          "type": "uint256"
        }
      ],
      "name": "setChainlinkStalenessThreshold",
      "outputs": [],
      "stateMutability": "nonpayable",
      "type": "function"
    },
    {
      "inputs": [
        {
          "internalType": "uint256",
          "name": "newPriceUSD",
          "type": "uint256"
        }
      ],
      "name": "setCreditPriceUSD",
      "outputs": [],
      "stateMutability": "nonpayable",
      "type": "function"
    },
    {
      "inputs": [
        {
          "internalType": "uint256",
          "name": "newPrice",
          "type": "uint256"
        }
      ],
      "name": "setEthUsdPrice",
      "outputs": [],
      "stateMutability": "nonpayable",
      "type": "function"
    },
    {
      "inputs": [
        {
          "internalType": "address",
          "name": "newOwner",
          "type": "address"
        }
      ],
      "name": "transferOwnership",
      "outputs": [],
      "stateMutability": "nonpayable",
      "type": "function"
    },
    {
      "inputs": [],
      "name": "uniswapPool",
      "outputs": [
        {
          "internalType": "contract IUniswapV3Pool",
          "name": "",
          "type": "address"
        }
      ],
      "stateMutability": "view",
      "type": "function"
    }
  ],
  "transactionHash": "0x7e2956d4228ad70dd351f9ddec4b994f830b64601aef02fbd5ae7f4ed906b3e2",
  "args": [
    "0xCD55381a53da35Ab1D7Bc5e3fE5F76cac976FAc3",
    "0x71041dddad3595F9CEd3DcCFBe3D1F4b0a16Bb70",
    "0x4f8AC2fAa3cAcACAcB7b4997A48F377fe88dFd46"
  ],
  "numDeployments": 1,
  "solcInputHash": "0fce351fc1b63a9eeb09c8e4bff5c041",
  "bytecode": "0x60c060405267016345785d8a00006001556866ffcbfd5e5a300000600255610e1060035534801561002f57600080fd5b5060405161113238038061113283398101604081905261004e9161010b565b806001600160a01b03811661007d57604051631e4fbdf760e01b81526000600482015260240160405180910390fd5b6100868161009f565b50506001600160a01b039182166080521660a05261014e565b600080546001600160a01b038381166001600160a01b0319831681178455604051919092169283917f8be0079c531659141344cd1fd0a4f28419497f9722a3daafe3b4186f6b6457e09190a35050565b80516001600160a01b038116811461010657600080fd5b919050565b60008060006060848603121561012057600080fd5b610129846100ef565b9250610137602085016100ef565b9150610145604085016100ef565b90509250925092565b60805160a051610fb1610181600039600081816101b401526103e101526000818161020f01526106c20152610fb16000f3fe608060405234801561001057600080fd5b506004361061010b5760003560e01c80639478ab8c116100a2578063b951883a11610071578063b951883a146101f7578063bdd3d8251461020a578063e2c1d1d114610231578063f2fde38b1461024f578063ff9868cf1461026257600080fd5b80639478ab8c146101d657806395577d32146101df578063a0a8045e146101e7578063b8ae4a8d146101ef57600080fd5b8063872190d4116100de578063872190d4146101795780638b08870a146101825780638da5cb5b1461018a578063923d70ce146101af57600080fd5b8063176108f314610110578063247872b1146101255780636481c5e614610141578063715018a614610171575b600080fd5b61012361011e366004610ba0565b610275565b005b61012e60015481565b6040519081526020015b60405180910390f35b6101496102df565b604080519586526020860194909452928401919091526060830152608082015260a001610138565b61012361031b565b61012e60035481565b61012e61032f565b6000546001600160a01b03165b6040516001600160a01b039091168152602001610138565b6101977f000000000000000000000000000000000000000000000000000000000000000081565b61012e60025481565b61012e610389565b61012e6103dd565b61012e6104a3565b610123610205366004610ba0565b6104f2565b6101977f000000000000000000000000000000000000000000000000000000000000000081565b61023a61070881565b60405163ffffffff9091168152602001610138565b61012361025d366004610bce565b61055c565b610123610270366004610ba0565b61059f565b61027d6105ac565b8060000361029e57604051630b5b2f2560e11b815260040160405180910390fd5b60015460408051918252602082018390527fc90001366a985178869715f2d52df2d32939a8c26df5d02737b0aa3cc2802aad910160405180910390a1600155565b60008060008060006102ef61032f565b94506102f96103dd565b93506103036104a3565b92506001549150610312610389565b90509091929394565b6103236105ac565b61032d60006105d9565b565b60008061033a610629565b90506000610347826107ca565b905060006103686001600160a01b0383168068010000000000000000610aed565b905061038181670de0b6b3a7640000600160801b610aed565b935050505090565b60008061039461032f565b905060006103a06103dd565b9050816000036103c35760405163062e837360e01b815260040160405180910390fd5b6103d681670de0b6b3a764000084610aed565b9250505090565b60007f00000000000000000000000000000000000000000000000000000000000000006001600160a01b031663feaf968c6040518163ffffffff1660e01b815260040160a060405180830381865afa925050508015610459575060408051601f3d908101601f1916820190925261045691810190610c0a565b60015b1561049c5760008413801561047857506003546104768342610c72565b105b156104965761048c846402540be400610c8b565b9550505050505090565b50505050505b5060025490565b6000806104ae61032f565b905060006104ba6103dd565b90508115806104c7575080155b156104e55760405163062e837360e01b815260040160405180910390fd5b6103d66001548383610aed565b6104fa6105ac565b8060000361051b57604051630b5b2f2560e11b815260040160405180910390fd5b60025460408051918252602082018390527f7270f9ae6c047ce36c9ffbed0b0edf967a5ae222ed585c6aabd837ffcf063461910160405180910390a1600255565b6105646105ac565b6001600160a01b03811661059357604051631e4fbdf760e01b8152600060048201526024015b60405180910390fd5b61059c816105d9565b50565b6105a76105ac565b600355565b6000546001600160a01b0316331461032d5760405163118cdaa760e01b815233600482015260240161058a565b600080546001600160a01b038381166001600160a01b0319831681178455604051919092169283917f8be0079c531659141344cd1fd0a4f28419497f9722a3daafe3b4186f6b6457e09190a35050565b604080516002808252606082018352600092839291906020830190803683370190505090506107088160008151811061066457610664610cb8565b602002602001019063ffffffff16908163ffffffff168152505060008160018151811061069357610693610cb8565b63ffffffff9092166020928302919091019091015260405163883bdbfd60e01b81526000906001600160a01b037f0000000000000000000000000000000000000000000000000000000000000000169063883bdbfd906106f7908590600401610cce565b600060405180830381865afa158015610714573d6000803e3d6000fd5b505050506040513d6000823e601f3d908101601f1916820160405261073c9190810190610de2565b50905060008160008151811061075457610754610cb8565b60200260200101518260018151811061076f5761076f610cb8565b60200260200101516107819190610eb5565b905061078f61070882610ef8565b935060008160060b1280156107b157506107ab61070882610f36565b60060b15155b156107c457836107c081610f58565b9450505b50505090565b60008060008360020b126107e1578260020b6107e9565b8260020b6000035b9050620d89e881111561080f576040516315e4079d60e11b815260040160405180910390fd5b60008160011660000361082657600160801b610838565b6ffffcb933bd6fad37aa2d162d1a5940015b70ffffffffffffffffffffffffffffffffff169050600282161561086c576ffff97272373d413259a46990580e213a0260801c5b600482161561088b576ffff2e50f5f656932ef12357cf3c7fdcc0260801c5b60088216156108aa576fffe5caca7e10e4e61c3624eaa0941cd00260801c5b60108216156108c9576fffcb9843d60f6159c9db58835c9266440260801c5b60208216156108e8576fff973b41fa98c081472e6896dfb254c00260801c5b6040821615610907576fff2ea16466c96a3843ec78b326b528610260801c5b6080821615610926576ffe5dee046a99a2a811c461f1969c30530260801c5b610100821615610946576ffcbe86c7900a88aedcffc83b479aa3a40260801c5b610200821615610966576ff987a7253ac413176f2b074cf7815e540260801c5b610400821615610986576ff3392b0822b70005940c7a398e4b70f30260801c5b6108008216156109a6576fe7159475a2c29b7443b29c7fa6e889d90260801c5b6110008216156109c6576fd097f3bdfd2022b8845ad8f792aa58250260801c5b6120008216156109e6576fa9f746462d870fdf8a65dc1f90e061e50260801c5b614000821615610a06576f70d869a156d2a1b890bb3df62baf32f70260801c5b618000821615610a26576f31be135f97d08fd981231505542fcfa60260801c5b62010000821615610a47576f09aa508b5b7a84e1c677de54f3e99bc90260801c5b62020000821615610a67576e5d6af8dedb81196699c329225ee6040260801c5b62040000821615610a86576d2216e584f5fa1ea926041bedfe980260801c5b62080000821615610aa3576b048a170391f7dc42444e8fa20260801c5b60008460020b1315610ac4578060001981610ac057610ac0610ee2565b0490505b640100000000810615610ad8576001610adb565b60005b60ff16602082901c0192505050919050565b6000808060001985870985870292508281108382030391505080600003610b265760008411610b1b57600080fd5b508290049050610b99565b808411610b3257600080fd5b6000848688096000868103871696879004966002600389028118808a02820302808a02820302808a02820302808a02820302808a02820302808a02909103029181900381900460010186841190950394909402919094039290920491909117919091029150505b9392505050565b600060208284031215610bb257600080fd5b5035919050565b6001600160a01b038116811461059c57600080fd5b600060208284031215610be057600080fd5b8135610b9981610bb9565b805169ffffffffffffffffffff81168114610c0557600080fd5b919050565b600080600080600060a08688031215610c2257600080fd5b610c2b86610beb565b60208701516040880151606089015192975090955093509150610c5060808701610beb565b90509295509295909350565b634e487b7160e01b600052601160045260246000fd5b81810381811115610c8557610c85610c5c565b92915050565b8082028115828204841417610c8557610c85610c5c565b634e487b7160e01b600052604160045260246000fd5b634e487b7160e01b600052603260045260246000fd5b602080825282518282018190526000918401906040840190835b81811015610d0c57835163ffffffff16835260209384019390920191600101610ce8565b509095945050505050565b604051601f8201601f1916810167ffffffffffffffff81118282101715610d4057610d40610ca2565b604052919050565b600067ffffffffffffffff821115610d6257610d62610ca2565b5060051b60200190565b600082601f830112610d7d57600080fd5b8151610d90610d8b82610d48565b610d17565b8082825260208201915060208360051b860101925085831115610db257600080fd5b602085015b83811015610dd8578051610dca81610bb9565b835260209283019201610db7565b5095945050505050565b60008060408385031215610df557600080fd5b825167ffffffffffffffff811115610e0c57600080fd5b8301601f81018513610e1d57600080fd5b8051610e2b610d8b82610d48565b8082825260208201915060208360051b850101925087831115610e4d57600080fd5b6020840193505b82841015610e7e5783518060060b8114610e6d57600080fd5b825260209384019390910190610e54565b80955050505050602083015167ffffffffffffffff811115610e9f57600080fd5b610eab85828601610d6c565b9150509250929050565b600682810b9082900b03667fffffffffffff198112667fffffffffffff82131715610c8557610c85610c5c565b634e487b7160e01b600052601260045260246000fd5b60008160060b8360060b80610f0f57610f0f610ee2565b667fffffffffffff19821460001982141615610f2d57610f2d610c5c565b90059392505050565b60008260060b80610f4957610f49610ee2565b808360060b0791505092915050565b60008160020b627fffff198103610f7157610f71610c5c565b600019019291505056fea26469706673582212207af6385ea3676b58dd4edf7ac52a5f17b478f41e78db8097a3b222d2daaa171b64736f6c634300081b0033",
  "devdoc": {
    "errors": {
      "OwnableInvalidOwner(address)": [
        {
          "details": "The owner is not a valid owner account. (eg. `address(0)`)"
        }
      ],
      "OwnableUnauthorizedAccount(address)": [
        {
          "details": "The caller account is not authorized to perform an operation."
        }
      ]
    },
    "kind": "dev",
    "methods": {
      "getClawdPerEth()": {
        "returns": {
          "clawdPerEth": "CLAWD per ETH with 18 decimal precision"
        }
      },
      "getClawdUsdPrice()": {
        "returns": {
          "clawdUsd": "CLAWD price in USD with 18 decimal precision"
        }
      },
      "getCreditPriceInCLAWD()": {
        "returns": {
          "priceInCLAWD": "Amount of CLAWD (18 dec) required per credit"
        }
      },
      "getEthUsdPrice()": {
        "returns": {
          "_0": "ETH price in USD with 18 decimals"
        }
      },
      "owner()": {
        "details": "Returns the address of the current owner."
      },
      "renounceOwnership()": {
        "details": "Leaves the contract without owner. It will not be possible to call `onlyOwner` functions. Can only be called by the current owner. NOTE: Renouncing ownership will leave the contract without an owner, thereby disabling any functionality that is only available to the owner."
      },
      "setChainlinkStalenessThreshold(uint256)": {
        "params": {
          "newThreshold": "Seconds before Chainlink data is considered stale"
        }
      },
      "setCreditPriceUSD(uint256)": {
        "params": {
          "newPriceUSD": "New price in USD with 18 decimals (e.g. 0.10e18 = $0.10)"
        }
      },
      "setEthUsdPrice(uint256)": {
        "params": {
          "newPrice": "ETH price in USD with 18 decimals"
        }
      },
      "transferOwnership(address)": {
        "details": "Transfers ownership of the contract to a new account (`newOwner`). Can only be called by the current owner."
      }
    },
    "title": "CLAWDPricing",
    "version": 1
  },
  "userdoc": {
    "kind": "user",
    "methods": {
      "chainlinkStalenessThreshold()": {
        "notice": "Maximum age for Chainlink data before falling back (seconds)"
      },
      "creditPriceUSD()": {
        "notice": "Target USD price per credit (18 decimals). Default: $0.10"
      },
      "ethUsdPrice()": {
        "notice": "Fallback ETH/USD price if Chainlink is stale/unavailable (18 decimals)"
      },
      "getClawdPerEth()": {
        "notice": "Get CLAWD per ETH from the 30-minute TWAP. Pool: WETH (token0) / CLAWD (token1) sqrtPriceX96 = sqrt(CLAWD/WETH) * 2^96 price = sqrtPriceX96^2 / 2^192 = CLAWD per WETH (both 18 dec)"
      },
      "getClawdUsdPrice()": {
        "notice": "Get CLAWD price in USD."
      },
      "getCreditPriceInCLAWD()": {
        "notice": "Get the credit price in CLAWD tokens. priceInCLAWD = creditPriceUSD / clawdUsdPrice              = creditPriceUSD * clawdPerEth / ethUsdPrice"
      },
      "getEthUsdPrice()": {
        "notice": "Get the ETH/USD price. Tries Chainlink first, falls back to owner-set price."
      },
      "getOracleData()": {
        "notice": "Returns all oracle data in one call for frontend display."
      },
      "setChainlinkStalenessThreshold(uint256)": {
        "notice": "Set the Chainlink staleness threshold. Owner only."
      },
      "setCreditPriceUSD(uint256)": {
        "notice": "Set the target USD price per credit. Owner only."
      },
      "setEthUsdPrice(uint256)": {
        "notice": "Set the fallback ETH/USD price (used when Chainlink is stale). Owner only."
      }
    },
    "notice": "Standalone TWAP oracle for CLAWD token pricing. Reads the WETH/CLAWD Uniswap v3 pool TWAP to determine CLAWD/ETH price, then uses Chainlink ETH/USD (with owner-set fallback) to derive CLAWD/USD. Used by CLAWDRouter to compute how much CLAWD is needed per API credit.",
    "version": 1
  },
  "storageLayout": {
    "storage": [
      {
        "astId": 8,
        "contract": "contracts/CLAWDPricing.sol:CLAWDPricing",
        "label": "_owner",
        "offset": 0,
        "slot": "0",
        "type": "t_address"
      },
      {
        "astId": 2302,
        "contract": "contracts/CLAWDPricing.sol:CLAWDPricing",
        "label": "creditPriceUSD",
        "offset": 0,
        "slot": "1",
        "type": "t_uint256"
      },
      {
        "astId": 2306,
        "contract": "contracts/CLAWDPricing.sol:CLAWDPricing",
        "label": "ethUsdPrice",
        "offset": 0,
        "slot": "2",
        "type": "t_uint256"
      },
      {
        "astId": 2310,
        "contract": "contracts/CLAWDPricing.sol:CLAWDPricing",
        "label": "chainlinkStalenessThreshold",
        "offset": 0,
        "slot": "3",
        "type": "t_uint256"
      }
    ],
    "types": {
      "t_address": {
        "encoding": "inplace",
        "label": "address",
        "numberOfBytes": "20"
      },
      "t_uint256": {
        "encoding": "inplace",
        "label": "uint256",
        "numberOfBytes": "32"
      }
    }
  }
}