{
  "address": "0xedeCFFec6E166f88a39DF452f9251f505a19Ef62",
  "abi": [
    {
      "inputs": [
        {
          "internalType": "address",
          "name": "_apiCredits",
          "type": "address"
        },
        {
          "internalType": "address",
          "name": "_pricing",
          "type": "address"
        },
        {
          "internalType": "address",
          "name": "_clawdToken",
          "type": "address"
        },
        {
          "internalType": "address",
          "name": "_usdc",
          "type": "address"
        },
        {
          "internalType": "address",
          "name": "_weth",
          "type": "address"
        },
        {
          "internalType": "address",
          "name": "_swapRouter",
          "type": "address"
        },
        {
          "internalType": "address",
          "name": "_owner",
          "type": "address"
        }
      ],
      "stateMutability": "nonpayable",
      "type": "constructor"
    },
    {
      "inputs": [
        {
          "internalType": "address",
          "name": "target",
          "type": "address"
        }
      ],
      "name": "AddressEmptyCode",
      "type": "error"
    },
    {
      "inputs": [
        {
          "internalType": "address",
          "name": "account",
          "type": "address"
        }
      ],
      "name": "AddressInsufficientBalance",
      "type": "error"
    },
    {
      "inputs": [],
      "name": "CLAWDRouter__ETHTransferFailed",
      "type": "error"
    },
    {
      "inputs": [],
      "name": "CLAWDRouter__InsufficientOutput",
      "type": "error"
    },
    {
      "inputs": [],
      "name": "CLAWDRouter__NothingToRefund",
      "type": "error"
    },
    {
      "inputs": [],
      "name": "CLAWDRouter__ZeroCommitments",
      "type": "error"
    },
    {
      "inputs": [],
      "name": "FailedInnerCall",
      "type": "error"
    },
    {
      "inputs": [
        {
          "internalType": "address",
          "name": "owner",
          "type": "address"
        }
      ],
      "name": "OwnableInvalidOwner",
      "type": "error"
    },
    {
      "inputs": [
        {
          "internalType": "address",
          "name": "account",
          "type": "address"
        }
      ],
      "name": "OwnableUnauthorizedAccount",
      "type": "error"
    },
    {
      "inputs": [
        {
          "internalType": "address",
          "name": "token",
          "type": "address"
        }
      ],
      "name": "SafeERC20FailedOperation",
      "type": "error"
    },
    {
      "anonymous": false,
      "inputs": [
        {
          "indexed": true,
          "internalType": "address",
          "name": "buyer",
          "type": "address"
        },
        {
          "indexed": false,
          "internalType": "uint256",
          "name": "numCredits",
          "type": "uint256"
        },
        {
          "indexed": false,
          "internalType": "uint256",
          "name": "clawdSpent",
          "type": "uint256"
        }
      ],
      "name": "CreditsPurchasedWithCLAWD",
      "type": "event"
    },
    {
      "anonymous": false,
      "inputs": [
        {
          "indexed": true,
          "internalType": "address",
          "name": "buyer",
          "type": "address"
        },
        {
          "indexed": false,
          "internalType": "uint256",
          "name": "numCredits",
          "type": "uint256"
        },
        {
          "indexed": false,
          "internalType": "uint256",
          "name": "ethSpent",
          "type": "uint256"
        },
        {
          "indexed": false,
          "internalType": "uint256",
          "name": "clawdAcquired",
          "type": "uint256"
        }
      ],
      "name": "CreditsPurchasedWithETH",
      "type": "event"
    },
    {
      "anonymous": false,
      "inputs": [
        {
          "indexed": true,
          "internalType": "address",
          "name": "buyer",
          "type": "address"
        },
        {
          "indexed": false,
          "internalType": "uint256",
          "name": "numCredits",
          "type": "uint256"
        },
        {
          "indexed": false,
          "internalType": "uint256",
          "name": "usdcSpent",
          "type": "uint256"
        },
        {
          "indexed": false,
          "internalType": "uint256",
          "name": "clawdAcquired",
          "type": "uint256"
        }
      ],
      "name": "CreditsPurchasedWithUSDC",
      "type": "event"
    },
    {
      "anonymous": false,
      "inputs": [
        {
          "indexed": true,
          "internalType": "address",
          "name": "previousOwner",
          "type": "address"
        },
        {
          "indexed": true,
          "internalType": "address",
          "name": "newOwner",
          "type": "address"
        }
      ],
      "name": "OwnershipTransferred",
      "type": "event"
    },
    {
      "inputs": [],
      "name": "CLAWD_WETH_FEE",
      "outputs": [
        {
          "internalType": "uint24",
          "name": "",
          "type": "uint24"
        }
      ],
      "stateMutability": "view",
      "type": "function"
    },
    {
      "inputs": [],
      "name": "USDC_WETH_FEE",
      "outputs": [
        {
          "internalType": "uint24",
          "name": "",
          "type": "uint24"
        }
      ],
      "stateMutability": "view",
      "type": "function"
    },
    {
      "inputs": [],
      "name": "apiCredits",
      "outputs": [
        {
          "internalType": "contract IAPICredits",
          "name": "",
          "type": "address"
        }
      ],
      "stateMutability": "view",
      "type": "function"
    },
    {
      "inputs": [
        {
          "internalType": "uint256[]",
          "name": "commitments",
          "type": "uint256[]"
        },
        {
          "internalType": "uint256",
          "name": "maxCLAWD",
          "type": "uint256"
        }
      ],
      "name": "buyWithCLAWD",
      "outputs": [],
      "stateMutability": "nonpayable",
      "type": "function"
    },
    {
      "inputs": [
        {
          "internalType": "uint256[]",
          "name": "commitments",
          "type": "uint256[]"
        },
        {
          "internalType": "uint256",
          "name": "minCLAWDOut",
          "type": "uint256"
        }
      ],
      "name": "buyWithETH",
      "outputs": [],
      "stateMutability": "payable",
      "type": "function"
    },
    {
      "inputs": [
        {
          "internalType": "uint256[]",
          "name": "commitments",
          "type": "uint256[]"
        },
        {
          "internalType": "uint256",
          "name": "usdcAmount",
          "type": "uint256"
        },
        {
          "internalType": "uint256",
          "name": "minCLAWDOut",
          "type": "uint256"
        }
      ],
      "name": "buyWithUSDC",
      "outputs": [],
      "stateMutability": "nonpayable",
      "type": "function"
    },
    {
      "inputs": [],
      "name": "clawdToken",
      "outputs": [
        {
          "internalType": "contract IERC20",
          "name": "",
          "type": "address"
        }
      ],
      "stateMutability": "view",
      "type": "function"
    },
    {
      "inputs": [],
      "name": "owner",
      "outputs": [
        {
          "internalType": "address",
          "name": "",
          "type": "address"
        }
      ],
      "stateMutability": "view",
      "type": "function"
    },
    {
      "inputs": [],
      "name": "pricing",
      "outputs": [
        {
          "internalType": "contract ICLAWDPricing",
          "name": "",
          "type": "address"
        }
      ],
      "stateMutability": "view",
      "type": "function"
    },
    {
      "inputs": [
        {
          "internalType": "uint256",
          "name": "numCredits",
          "type": "uint256"
        }
      ],
      "name": "quoteCredits",
      "outputs": [
        {
          "internalType": "uint256",
          "name": "clawdNeeded",
          "type": "uint256"
        },
        {
          "internalType": "uint256",
          "name": "usdEquivalent",
          "type": "uint256"
        }
      ],
      "stateMutability": "view",
      "type": "function"
    },
    {
      "inputs": [],
      "name": "renounceOwnership",
      "outputs": [],
      "stateMutability": "nonpayable",
      "type": "function"
    },
    {
      "inputs": [
        {
          "internalType": "address",
          "name": "token",
          "type": "address"
        },
        {
          "internalType": "address",
          "name": "to",
          "type": "address"
        },
        {
          "internalType": "uint256",
          "name": "amount",
          "type": "uint256"
        }
      ],
      "name": "rescueTokens",
      "outputs": [],
      "stateMutability": "nonpayable",
      "type": "function"
    },
    {
      "inputs": [],
      "name": "swapRouter",
      "outputs": [
        {
          "internalType": "contract ISwapRouter",
          "name": "",
          "type": "address"
        }
      ],
      "stateMutability": "view",
      "type": "function"
    },
    {
      "inputs": [
        {
          "internalType": "address",
          "name": "newOwner",
          "type": "address"
        }
      ],
      "name": "transferOwnership",
      "outputs": [],
      "stateMutability": "nonpayable",
      "type": "function"
    },
    {
      "inputs": [],
      "name": "usdc",
      "outputs": [
        {
          "internalType": "contract IERC20",
          "name": "",
          "type": "address"
        }
      ],
      "stateMutability": "view",
      "type": "function"
    },
    {
      "inputs": [],
      "name": "weth",
      "outputs": [
        {
          "internalType": "contract IWETH",
          "name": "",
          "type": "address"
        }
      ],
      "stateMutability": "view",
      "type": "function"
    },
    {
      "stateMutability": "payable",
      "type": "receive"
    }
  ],
  "transactionHash": "0x6c20c7b80b9fed4f60e231ae17deda204b5268dfdc1d317ce4958f817e4336f2",
  "args": [
    "0xc18fad39f72eBe5E54718D904C5012Da74594674",
    "0xaca9733Cc19aD837899dc7D1170aF1d5367C332E",
    "0x9f86dB9fc6f7c9408e8Fda3Ff8ce4e78ac7a6b07",
    "0x833589fCD6eDb6E08f4c7C32D4f71b54bdA02913",
    "0x4200000000000000000000000000000000000006",
    "0x2626664c2603336E57B271c5C0b26F421741e481",
    "0x4f8AC2fAa3cAcACAcB7b4997A48F377fe88dFd46"
  ],
  "numDeployments": 1,
  "solcInputHash": "0fce351fc1b63a9eeb09c8e4bff5c041",
  "bytecode": "0x61014060405234801561001157600080fd5b5060405161191f38038061191f8339810160408190526100309161017d565b806001600160a01b03811661005f57604051631e4fbdf760e01b81526000600482015260240160405180910390fd5b61006881610111565b506001600160a01b03878116608081905287821660a05286821660c081905286831660e052858316610100529184166101205260405163095ea7b360e01b81526004810191909152600019602482015263095ea7b3906044016020604051808303816000875af11580156100e0573d6000803e3d6000fd5b505050506040513d601f19601f820116820180604052508101906101049190610203565b505050505050505061022c565b600080546001600160a01b038381166001600160a01b0319831681178455604051919092169283917f8be0079c531659141344cd1fd0a4f28419497f9722a3daafe3b4186f6b6457e09190a35050565b80516001600160a01b038116811461017857600080fd5b919050565b600080600080600080600060e0888a03121561019857600080fd5b6101a188610161565b96506101af60208901610161565b95506101bd60408901610161565b94506101cb60608901610161565b93506101d960808901610161565b92506101e760a08901610161565b91506101f560c08901610161565b905092959891949750929550565b60006020828403121561021557600080fd5b8151801515811461022557600080fd5b9392505050565b60805160a05160c05160e05161010051610120516115f561032a600039600081816102e90152818161076201528181610ad001528181610c0501528181610c950152610dcf0152600081816101880152818161079e01528181610ba701528181610cc70152610d4c01526000818161013701528181610a9101528181610aff0152610b8201526000818161022301528181610479015281816107cd0152818161095d01528181610d710152610f100152600081816101d1015261060e015260008181610373015281816103bf015281816104b80152818161057e015281816106d2015281816108cf015281816109f80152610e8201526115f56000f3fe6080604052600436106100f75760003560e01c8063b43943d21161008a578063cea9d26f11610059578063cea9d26f1461030b578063e2832c5d1461032b578063f2fde38b14610341578063f90f02ce1461036157600080fd5b8063b43943d21461027a578063bbb84862146102a4578063c1496e92146102b7578063c31c9c07146102d757600080fd5b80637ce91411116100c65780637ce91411146101bf5780638da5cb5b146101f357806390111b0d146102115780639ee44cc91461024557600080fd5b806315c1edaa146101035780633e413bee146101255780633fc8cef314610176578063715018a6146101aa57600080fd5b366100fe57005b600080fd5b34801561010f57600080fd5b5061012361011e3660046112ed565b610395565b005b34801561013157600080fd5b506101597f000000000000000000000000000000000000000000000000000000000000000081565b6040516001600160a01b0390911681526020015b60405180910390f35b34801561018257600080fd5b506101597f000000000000000000000000000000000000000000000000000000000000000081565b3480156101b657600080fd5b50610123610564565b3480156101cb57600080fd5b506101597f000000000000000000000000000000000000000000000000000000000000000081565b3480156101ff57600080fd5b506000546001600160a01b0316610159565b34801561021d57600080fd5b506101597f000000000000000000000000000000000000000000000000000000000000000081565b34801561025157600080fd5b50610265610260366004611339565b610578565b6040805192835260208301919091520161016d565b34801561028657600080fd5b506102906101f481565b60405162ffffff909116815260200161016d565b6101236102b23660046112ed565b6106a8565b3480156102c357600080fd5b506101236102d2366004611352565b6109ce565b3480156102e357600080fd5b506101597f000000000000000000000000000000000000000000000000000000000000000081565b34801561031757600080fd5b506101236103263660046113bf565b610f84565b34801561033757600080fd5b5061029061271081565b34801561034d57600080fd5b5061012361035c3660046113fc565b610fa5565b34801561036d57600080fd5b506101597f000000000000000000000000000000000000000000000000000000000000000081565b60008290036103b757604051632bce838d60e11b815260040160405180910390fd5b6000838390507f00000000000000000000000000000000000000000000000000000000000000006001600160a01b031663f3ab90c36040518163ffffffff1660e01b8152600401602060405180830381865afa15801561041b573d6000803e3d6000fd5b505050506040513d601f19601f8201168201806040525081019061043f9190611417565b6104499190611446565b90508082101561046c576040516305252e4160e51b815260040160405180910390fd5b6104a16001600160a01b037f000000000000000000000000000000000000000000000000000000000000000016333084610fe8565b604051630553b74560e41b81526001600160a01b037f0000000000000000000000000000000000000000000000000000000000000000169063553b7450906104f19084908890889060040161145d565b600060405180830381600087803b15801561050b57600080fd5b505af115801561051f573d6000803e3d6000fd5b505060408051868152602081018590523393507fb7c10624c23701f411e88c6cae148261a218a6b06da4843f8a416feb8823958b92500160405180910390a250505050565b61056c611055565b6105766000611082565b565b600080827f00000000000000000000000000000000000000000000000000000000000000006001600160a01b031663f3ab90c36040518163ffffffff1660e01b8152600401602060405180830381865afa1580156105da573d6000803e3d6000fd5b505050506040513d601f19601f820116820180604052508101906105fe9190611417565b6106089190611446565b915060007f00000000000000000000000000000000000000000000000000000000000000006001600160a01b0316636481c5e66040518163ffffffff1660e01b815260040160a060405180830381865afa15801561066a573d6000803e3d6000fd5b505050506040513d601f19601f8201168201806040525081019061068e919061149e565b50935050505083816106a09190611446565b915050915091565b60008290036106ca57604051632bce838d60e11b815260040160405180910390fd5b6000838390507f00000000000000000000000000000000000000000000000000000000000000006001600160a01b031663f3ab90c36040518163ffffffff1660e01b8152600401602060405180830381865afa15801561072e573d6000803e3d6000fd5b505050506040513d601f19601f820116820180604052508101906107529190611417565b61075c9190611446565b905060007f00000000000000000000000000000000000000000000000000000000000000006001600160a01b031663414bf389346040518061010001604052807f00000000000000000000000000000000000000000000000000000000000000006001600160a01b031681526020017f00000000000000000000000000000000000000000000000000000000000000006001600160a01b0316815260200161271062ffffff168152602001306001600160a01b0316815260200142815260200134815260200187815260200160006001600160a01b03168152506040518363ffffffff1660e01b815260040161085291906114de565b60206040518083038185885af1158015610870573d6000803e3d6000fd5b50505050506040513d601f19601f820116820180604052508101906108959190611417565b9050818110156108b8576040516305252e4160e51b815260040160405180910390fd5b604051630553b74560e41b81526001600160a01b037f0000000000000000000000000000000000000000000000000000000000000000169063553b7450906109089085908990899060040161145d565b600060405180830381600087803b15801561092257600080fd5b505af1158015610936573d6000803e3d6000fd5b5050505060008282610948919061155b565b90508015610984576109846001600160a01b037f00000000000000000000000000000000000000000000000000000000000000001633836110d2565b6040805186815234602082015290810183905233907fdcd614342c659a883f4f07dd267756b7e09685243457ae2848035ba07a42c7389060600160405180910390a2505050505050565b60008390036109f057604051632bce838d60e11b815260040160405180910390fd5b6000848490507f00000000000000000000000000000000000000000000000000000000000000006001600160a01b031663f3ab90c36040518163ffffffff1660e01b8152600401602060405180830381865afa158015610a54573d6000803e3d6000fd5b505050506040513d601f19601f82011682018060405250810190610a789190611417565b610a829190611446565b9050610ab96001600160a01b037f000000000000000000000000000000000000000000000000000000000000000016333086610fe8565b60405163095ea7b360e01b81526001600160a01b037f000000000000000000000000000000000000000000000000000000000000000081166004830152602482018590527f0000000000000000000000000000000000000000000000000000000000000000169063095ea7b3906044016020604051808303816000875af1158015610b48573d6000803e3d6000fd5b505050506040513d601f19601f82011682018060405250810190610b6c919061156e565b5060408051610100810182526001600160a01b037f0000000000000000000000000000000000000000000000000000000000000000811682527f0000000000000000000000000000000000000000000000000000000000000000811660208301526101f48284015230606083015242608083015260a08201869052600060c0830181905260e08301819052925163414bf38960e01b81527f00000000000000000000000000000000000000000000000000000000000000009091169163414bf38991610c3b91906004016114de565b6020604051808303816000875af1158015610c5a573d6000803e3d6000fd5b505050506040513d601f19601f82011682018060405250810190610c7e9190611417565b60405163095ea7b360e01b81526001600160a01b037f000000000000000000000000000000000000000000000000000000000000000081166004830152602482018390529192507f00000000000000000000000000000000000000000000000000000000000000009091169063095ea7b3906044016020604051808303816000875af1158015610d12573d6000803e3d6000fd5b505050506040513d601f19601f82011682018060405250810190610d36919061156e565b5060408051610100810182526001600160a01b037f0000000000000000000000000000000000000000000000000000000000000000811682527f0000000000000000000000000000000000000000000000000000000000000000811660208301526127108284015230606083015242608083015260a0820184905260c08201869052600060e08301819052925163414bf38960e01b81527f00000000000000000000000000000000000000000000000000000000000000009091169163414bf38991610e0591906004016114de565b6020604051808303816000875af1158015610e24573d6000803e3d6000fd5b505050506040513d601f19601f82011682018060405250810190610e489190611417565b905082811015610e6b576040516305252e4160e51b815260040160405180910390fd5b604051630553b74560e41b81526001600160a01b037f0000000000000000000000000000000000000000000000000000000000000000169063553b745090610ebb9086908b908b9060040161145d565b600060405180830381600087803b158015610ed557600080fd5b505af1158015610ee9573d6000803e3d6000fd5b5050505060008382610efb919061155b565b90508015610f3757610f376001600160a01b037f00000000000000000000000000000000000000000000000000000000000000001633836110d2565b604080518881526020810188905290810183905233907f8590c54d67ff70d3caebfcf718e8748b85187301823a7d344c57991f9c2c49289060600160405180910390a25050505050505050565b610f8c611055565b610fa06001600160a01b03841683836110d2565b505050565b610fad611055565b6001600160a01b038116610fdc57604051631e4fbdf760e01b8152600060048201526024015b60405180910390fd5b610fe581611082565b50565b6040516001600160a01b03848116602483015283811660448301526064820183905261104f9186918216906323b872dd906084015b604051602081830303815290604052915060e01b6020820180516001600160e01b038381831617835250505050611103565b50505050565b6000546001600160a01b031633146105765760405163118cdaa760e01b8152336004820152602401610fd3565b600080546001600160a01b038381166001600160a01b0319831681178455604051919092169283917f8be0079c531659141344cd1fd0a4f28419497f9722a3daafe3b4186f6b6457e09190a35050565b6040516001600160a01b03838116602483015260448201839052610fa091859182169063a9059cbb9060640161101d565b60006111186001600160a01b03841683611166565b9050805160001415801561113d57508080602001905181019061113b919061156e565b155b15610fa057604051635274afe760e01b81526001600160a01b0384166004820152602401610fd3565b60606111748383600061117d565b90505b92915050565b6060814710156111a25760405163cd78605960e01b8152306004820152602401610fd3565b600080856001600160a01b031684866040516111be9190611590565b60006040518083038185875af1925050503d80600081146111fb576040519150601f19603f3d011682016040523d82523d6000602084013e611200565b606091505b509150915061121086838361121c565b925050505b9392505050565b6060826112315761122c82611278565b611215565b815115801561124857506001600160a01b0384163b155b1561127157604051639996b31560e01b81526001600160a01b0385166004820152602401610fd3565b5080611215565b8051156112885780518082602001fd5b604051630a12f52160e11b815260040160405180910390fd5b60008083601f8401126112b357600080fd5b50813567ffffffffffffffff8111156112cb57600080fd5b6020830191508360208260051b85010111156112e657600080fd5b9250929050565b60008060006040848603121561130257600080fd5b833567ffffffffffffffff81111561131957600080fd5b611325868287016112a1565b909790965060209590950135949350505050565b60006020828403121561134b57600080fd5b5035919050565b6000806000806060858703121561136857600080fd5b843567ffffffffffffffff81111561137f57600080fd5b61138b878288016112a1565b90989097506020870135966040013595509350505050565b80356001600160a01b03811681146113ba57600080fd5b919050565b6000806000606084860312156113d457600080fd5b6113dd846113a3565b92506113eb602085016113a3565b929592945050506040919091013590565b60006020828403121561140e57600080fd5b611174826113a3565b60006020828403121561142957600080fd5b5051919050565b634e487b7160e01b600052601160045260246000fd5b808202811582820484141761117757611177611430565b838152604060208201819052810182905260006001600160fb1b0383111561148457600080fd5b8260051b8085606085013791909101606001949350505050565b600080600080600060a086880312156114b657600080fd5b5050835160208501516040860151606087015160809097015192989197509594509092509050565b81516001600160a01b03908116825260208084015182169083015260408084015162ffffff169083015260608084015191821690830152610100820190506080830151608083015260a083015160a083015260c083015160c083015260e083015161155460e08401826001600160a01b03169052565b5092915050565b8181038181111561117757611177611430565b60006020828403121561158057600080fd5b8151801515811461121557600080fd5b6000825160005b818110156115b15760208186018101518583015201611597565b50600092019182525091905056fea2646970667358221220aeaf614792f48de27b57e4d720d471d544ab6745993c2f45085db93810eb4b5d64736f6c634300081b0033",
  "devdoc": {
    "errors": {
      "AddressEmptyCode(address)": [
        {
          "details": "There's no code at `target` (it is not a contract)."
        }
      ],
      "AddressInsufficientBalance(address)": [
        {
          "details": "The ETH balance of the account is not enough to perform the operation."
        }
      ],
      "FailedInnerCall()": [
        {
          "details": "A call to an address target failed. The target may have reverted."
        }
      ],
      "OwnableInvalidOwner(address)": [
        {
          "details": "The owner is not a valid owner account. (eg. `address(0)`)"
        }
      ],
      "OwnableUnauthorizedAccount(address)": [
        {
          "details": "The caller account is not authorized to perform an operation."
        }
      ],
      "SafeERC20FailedOperation(address)": [
        {
          "details": "An operation with an ERC20 token failed."
        }
      ]
    },
    "kind": "dev",
    "methods": {
      "buyWithCLAWD(uint256[],uint256)": {
        "params": {
          "commitments": "ZK commitments (one per credit)",
          "maxCLAWD": "Maximum CLAWD willing to spend (slippage protection)"
        }
      },
      "buyWithETH(uint256[],uint256)": {
        "params": {
          "commitments": "ZK commitments (one per credit)",
          "minCLAWDOut": "Minimum CLAWD to receive from swap (slippage protection)"
        }
      },
      "buyWithUSDC(uint256[],uint256,uint256)": {
        "params": {
          "commitments": "ZK commitments (one per credit)",
          "minCLAWDOut": "Minimum CLAWD to receive from swap (slippage protection)",
          "usdcAmount": "Amount of USDC to spend (6 decimals)"
        }
      },
      "owner()": {
        "details": "Returns the address of the current owner."
      },
      "quoteCredits(uint256)": {
        "details": "This is a convenience view — the actual amount charged uses      apiCredits.pricePerCredit() which is the static contract rate.      The TWAP price from CLAWDPricing is for frontend USD display."
      },
      "renounceOwnership()": {
        "details": "Leaves the contract without owner. It will not be possible to call `onlyOwner` functions. Can only be called by the current owner. NOTE: Renouncing ownership will leave the contract without an owner, thereby disabling any functionality that is only available to the owner."
      },
      "transferOwnership(address)": {
        "details": "Transfers ownership of the contract to a new account (`newOwner`). Can only be called by the current owner."
      }
    },
    "title": "CLAWDRouter",
    "version": 1
  },
  "userdoc": {
    "kind": "user",
    "methods": {
      "buyWithCLAWD(uint256[],uint256)": {
        "notice": "Buy credits by paying CLAWD directly."
      },
      "buyWithETH(uint256[],uint256)": {
        "notice": "Buy credits by paying ETH. Swaps ETH → WETH → CLAWD via Uniswap."
      },
      "buyWithUSDC(uint256[],uint256,uint256)": {
        "notice": "Buy credits by paying USDC. Swaps USDC → WETH → CLAWD via Uniswap."
      },
      "quoteCredits(uint256)": {
        "notice": "Get the CLAWD amount needed for N credits (from TWAP oracle)."
      },
      "rescueTokens(address,address,uint256)": {
        "notice": "Rescue stuck tokens. Owner only."
      }
    },
    "notice": "Payment router for ZK API Credits. Accepts CLAWD directly, ETH, or USDC. Non-CLAWD payments are swapped to CLAWD via Uniswap v3 before calling APICredits.stakeAndRegister(). Uses CLAWDPricing for TWAP-based price discovery.",
    "version": 1
  },
  "storageLayout": {
    "storage": [
      {
        "astId": 8,
        "contract": "contracts/CLAWDRouter.sol:CLAWDRouter",
        "label": "_owner",
        "offset": 0,
        "slot": "0",
        "type": "t_address"
      }
    ],
    "types": {
      "t_address": {
        "encoding": "inplace",
        "label": "address",
        "numberOfBytes": "20"
      }
    }
  }
}